{
  "_format": "hh-sol-artifact-1",
  "contractName": "Staking",
  "sourceName": "contracts/Staking.sol",
  "abi": [
    {
      "inputs": [
        {
          "internalType": "address",
          "name": "token",
          "type": "address"
        }
      ],
      "stateMutability": "nonpayable",
      "type": "constructor"
    },
    {
      "inputs": [
        {
          "internalType": "uint256",
          "name": "totalStakedPercentage",
          "type": "uint256"
        }
      ],
      "name": "calculateAPR",
      "outputs": [
        {
          "internalType": "uint256",
          "name": "",
          "type": "uint256"
        }
      ],
      "stateMutability": "pure",
      "type": "function"
    },
    {
      "inputs": [
        {
          "internalType": "address",
          "name": "account",
          "type": "address"
        }
      ],
      "name": "checkBalance",
      "outputs": [
        {
          "internalType": "uint256",
          "name": "",
          "type": "uint256"
        }
      ],
      "stateMutability": "view",
      "type": "function"
    },
    {
      "inputs": [],
      "name": "getAPR",
      "outputs": [
        {
          "internalType": "uint256",
          "name": "",
          "type": "uint256"
        }
      ],
      "stateMutability": "view",
      "type": "function"
    },
    {
      "inputs": [],
      "name": "getPositions",
      "outputs": [
        {
          "components": [
            {
              "internalType": "address",
              "name": "walletAddress",
              "type": "address"
            },
            {
              "internalType": "uint256",
              "name": "createdDate",
              "type": "uint256"
            },
            {
              "internalType": "uint256",
              "name": "amountStaked",
              "type": "uint256"
            },
            {
              "internalType": "uint256",
              "name": "rewardStaked",
              "type": "uint256"
            }
          ],
          "internalType": "struct Staking.Position",
          "name": "",
          "type": "tuple"
        }
      ],
      "stateMutability": "view",
      "type": "function"
    },
    {
      "inputs": [],
      "name": "getRewards",
      "outputs": [
        {
          "internalType": "uint256",
          "name": "",
          "type": "uint256"
        }
      ],
      "stateMutability": "view",
      "type": "function"
    },
    {
      "inputs": [],
      "name": "harvest",
      "outputs": [],
      "stateMutability": "nonpayable",
      "type": "function"
    },
    {
      "inputs": [],
      "name": "owner",
      "outputs": [
        {
          "internalType": "address",
          "name": "",
          "type": "address"
        }
      ],
      "stateMutability": "view",
      "type": "function"
    },
    {
      "inputs": [
        {
          "internalType": "address",
          "name": "",
          "type": "address"
        }
      ],
      "name": "positions",
      "outputs": [
        {
          "internalType": "address",
          "name": "walletAddress",
          "type": "address"
        },
        {
          "internalType": "uint256",
          "name": "createdDate",
          "type": "uint256"
        },
        {
          "internalType": "uint256",
          "name": "amountStaked",
          "type": "uint256"
        },
        {
          "internalType": "uint256",
          "name": "rewardStaked",
          "type": "uint256"
        }
      ],
      "stateMutability": "view",
      "type": "function"
    },
    {
      "inputs": [
        {
          "internalType": "uint256",
          "name": "apr",
          "type": "uint256"
        },
        {
          "internalType": "uint256",
          "name": "amountStaked",
          "type": "uint256"
        },
        {
          "internalType": "uint256",
          "name": "startDate",
          "type": "uint256"
        }
      ],
      "name": "reward",
      "outputs": [
        {
          "internalType": "uint256",
          "name": "",
          "type": "uint256"
        }
      ],
      "stateMutability": "view",
      "type": "function"
    },
    {
      "inputs": [
        {
          "internalType": "uint256",
          "name": "amount",
          "type": "uint256"
        }
      ],
      "name": "stake",
      "outputs": [],
      "stateMutability": "nonpayable",
      "type": "function"
    },
    {
      "inputs": [],
      "name": "stakingToken",
      "outputs": [
        {
          "internalType": "contract IERC20",
          "name": "",
          "type": "address"
        }
      ],
      "stateMutability": "view",
      "type": "function"
    },
    {
      "inputs": [],
      "name": "unstake",
      "outputs": [],
      "stateMutability": "nonpayable",
      "type": "function"
    }
  ],
  "bytecode": "0x60806040523480156200001157600080fd5b506040516200198b3803806200198b8339818101604052810190620000379190620000d6565b336000806101000a81548173ffffffffffffffffffffffffffffffffffffffff021916908373ffffffffffffffffffffffffffffffffffffffff16021790555080600160006101000a81548173ffffffffffffffffffffffffffffffffffffffff021916908373ffffffffffffffffffffffffffffffffffffffff1602179055505062000150565b600081519050620000d08162000136565b92915050565b600060208284031215620000e957600080fd5b6000620000f984828501620000bf565b91505092915050565b60006200010f8262000116565b9050919050565b600073ffffffffffffffffffffffffffffffffffffffff82169050919050565b620001418162000102565b81146200014d57600080fd5b50565b61182b80620001606000396000f3fe608060405234801561001057600080fd5b50600436106100b45760003560e01c806372f702f31161007157806372f702f31461017e578063802758601461019c5780638da5cb5b146101ba578063a694fc3a146101d8578063c89d5b8b146101f4578063d1a02a8614610212576100b4565b8063035694b6146100b95780630572b0cc146100e95780632def6620146101075780634641257d1461011157806355f575101461011b5780635f5152261461014e575b600080fd5b6100d360048036038101906100ce919061122e565b610242565b6040516100e091906115a5565b60405180910390f35b6100f16102fb565b6040516100fe91906115a5565b60405180910390f35b61010f6103a3565b005b610119610635565b005b6101356004803603810190610130919061118a565b6109f6565b60405161014594939291906114ca565b60405180910390f35b6101686004803603810190610163919061118a565b610a46565b60405161017591906115a5565b60405180910390f35b610186610afa565b604051610193919061150f565b60405180910390f35b6101a4610b20565b6040516101b1919061158a565b60405180910390f35b6101c2610beb565b6040516101cf919061144f565b60405180910390f35b6101f260048036038101906101ed91906111dc565b610c0f565b005b6101fc610e38565b60405161020991906115a5565b60405180910390f35b61022c600480360381019061022791906111dc565b610fc7565b60405161023991906115a5565b60405180910390f35b600080824261025191906116b2565b90506000610269603c836110b690919063ffffffff16565b90506000610287662386f26fc10000886110cc90919063ffffffff16565b905060006102a162080520836110b690919063ffffffff16565b905060006102d2670de0b6b3a76400006102c4848b6110cc90919063ffffffff16565b6110b690919063ffffffff16565b905060006102e985836110cc90919063ffffffff16565b90508096505050505050509392505050565b600080610306610e38565b9050600061039982600260003373ffffffffffffffffffffffffffffffffffffffff1673ffffffffffffffffffffffffffffffffffffffff16815260200190815260200160002060020154600260003373ffffffffffffffffffffffffffffffffffffffff1673ffffffffffffffffffffffffffffffffffffffff16815260200190815260200160002060010154610242565b9050809250505090565b3373ffffffffffffffffffffffffffffffffffffffff16600260003373ffffffffffffffffffffffffffffffffffffffff1673ffffffffffffffffffffffffffffffffffffffff16815260200190815260200160002060000160009054906101000a900473ffffffffffffffffffffffffffffffffffffffff1673ffffffffffffffffffffffffffffffffffffffff1614610473576040517f08c379a000000000000000000000000000000000000000000000000000000000815260040161046a9061154a565b60405180910390fd5b6000600260003373ffffffffffffffffffffffffffffffffffffffff1673ffffffffffffffffffffffffffffffffffffffff1681526020019081526020016000206002015414156104f9576040517f08c379a00000000000000000000000000000000000000000000000000000000081526004016104f09061156a565b60405180910390fd5b600160009054906101000a900473ffffffffffffffffffffffffffffffffffffffff1673ffffffffffffffffffffffffffffffffffffffff1663a9059cbb33600260003373ffffffffffffffffffffffffffffffffffffffff1673ffffffffffffffffffffffffffffffffffffffff168152602001908152602001600020600201546040518363ffffffff1660e01b81526004016105989291906114a1565b602060405180830381600087803b1580156105b257600080fd5b505af11580156105c6573d6000803e3d6000fd5b505050506040513d601f19601f820116820180604052508101906105ea91906111b3565b506000600260003373ffffffffffffffffffffffffffffffffffffffff1673ffffffffffffffffffffffffffffffffffffffff16815260200190815260200160002060020181905550565b600061063f610e38565b905060006106d282600260003373ffffffffffffffffffffffffffffffffffffffff1673ffffffffffffffffffffffffffffffffffffffff16815260200190815260200160002060020154600260003373ffffffffffffffffffffffffffffffffffffffff1673ffffffffffffffffffffffffffffffffffffffff16815260200190815260200160002060010154610242565b905080600260003373ffffffffffffffffffffffffffffffffffffffff1673ffffffffffffffffffffffffffffffffffffffff168152602001908152602001600020600301819055503373ffffffffffffffffffffffffffffffffffffffff16600260003373ffffffffffffffffffffffffffffffffffffffff1673ffffffffffffffffffffffffffffffffffffffff16815260200190815260200160002060000160009054906101000a900473ffffffffffffffffffffffffffffffffffffffff1673ffffffffffffffffffffffffffffffffffffffff16146107eb576040517f08c379a00000000000000000000000000000000000000000000000000000000081526004016107e29061154a565b60405180910390fd5b6000600260003373ffffffffffffffffffffffffffffffffffffffff1673ffffffffffffffffffffffffffffffffffffffff168152602001908152602001600020600301541415610871576040517f08c379a00000000000000000000000000000000000000000000000000000000081526004016108689061152a565b60405180910390fd5b600160009054906101000a900473ffffffffffffffffffffffffffffffffffffffff1673ffffffffffffffffffffffffffffffffffffffff1663a9059cbb33600260003373ffffffffffffffffffffffffffffffffffffffff1673ffffffffffffffffffffffffffffffffffffffff168152602001908152602001600020600301546040518363ffffffff1660e01b81526004016109109291906114a1565b602060405180830381600087803b15801561092a57600080fd5b505af115801561093e573d6000803e3d6000fd5b505050506040513d601f19601f8201168201806040525081019061096291906111b3565b5042600260003373ffffffffffffffffffffffffffffffffffffffff1673ffffffffffffffffffffffffffffffffffffffff168152602001908152602001600020600101819055506000600260003373ffffffffffffffffffffffffffffffffffffffff1673ffffffffffffffffffffffffffffffffffffffff168152602001908152602001600020600301819055505050565b60026020528060005260406000206000915090508060000160009054906101000a900473ffffffffffffffffffffffffffffffffffffffff16908060010154908060020154908060030154905084565b6000600160009054906101000a900473ffffffffffffffffffffffffffffffffffffffff1673ffffffffffffffffffffffffffffffffffffffff166370a08231836040518263ffffffff1660e01b8152600401610aa3919061144f565b60206040518083038186803b158015610abb57600080fd5b505afa158015610acf573d6000803e3d6000fd5b505050506040513d601f19601f82011682018060405250810190610af39190611205565b9050919050565b600160009054906101000a900473ffffffffffffffffffffffffffffffffffffffff1681565b610b286110f8565b600260003373ffffffffffffffffffffffffffffffffffffffff1673ffffffffffffffffffffffffffffffffffffffff1681526020019081526020016000206040518060800160405290816000820160009054906101000a900473ffffffffffffffffffffffffffffffffffffffff1673ffffffffffffffffffffffffffffffffffffffff1673ffffffffffffffffffffffffffffffffffffffff1681526020016001820154815260200160028201548152602001600382015481525050905090565b60008054906101000a900473ffffffffffffffffffffffffffffffffffffffff1681565b600160009054906101000a900473ffffffffffffffffffffffffffffffffffffffff1673ffffffffffffffffffffffffffffffffffffffff166323b872dd3330846040518463ffffffff1660e01b8152600401610c6e9392919061146a565b602060405180830381600087803b158015610c8857600080fd5b505af1158015610c9c573d6000803e3d6000fd5b505050506040513d601f19601f82011682018060405250810190610cc091906111b3565b5060405180608001604052803373ffffffffffffffffffffffffffffffffffffffff168152602001428152602001610d4383600260003373ffffffffffffffffffffffffffffffffffffffff1673ffffffffffffffffffffffffffffffffffffffff168152602001908152602001600020600201546110e290919063ffffffff16565b8152602001600260003373ffffffffffffffffffffffffffffffffffffffff1673ffffffffffffffffffffffffffffffffffffffff16815260200190815260200160002060030154815250600260003373ffffffffffffffffffffffffffffffffffffffff1673ffffffffffffffffffffffffffffffffffffffff16815260200190815260200160002060008201518160000160006101000a81548173ffffffffffffffffffffffffffffffffffffffff021916908373ffffffffffffffffffffffffffffffffffffffff16021790555060208201518160010155604082015181600201556060820151816003015590505050565b600080600160009054906101000a900473ffffffffffffffffffffffffffffffffffffffff1673ffffffffffffffffffffffffffffffffffffffff166370a08231306040518263ffffffff1660e01b8152600401610e96919061144f565b60206040518083038186803b158015610eae57600080fd5b505afa158015610ec2573d6000803e3d6000fd5b505050506040513d601f19601f82011682018060405250810190610ee69190611205565b90506000600160009054906101000a900473ffffffffffffffffffffffffffffffffffffffff1673ffffffffffffffffffffffffffffffffffffffff166318160ddd6040518163ffffffff1660e01b815260040160206040518083038186803b158015610f5257600080fd5b505afa158015610f66573d6000803e3d6000fd5b505050506040513d601f19601f82011682018060405250810190610f8a9190611205565b90506000610fb482610fa66064866110cc90919063ffffffff16565b6110b690919063ffffffff16565b9050610fbf81610fc7565b935050505090565b600080600090506014831161100457601483610951610fe69190611658565b610ff09190611627565b610960610ffd91906116b2565b90506110ad565b60288311611043576014808461101a91906116b2565b60086110269190611658565b6110309190611627565b600f61103c91906116b2565b90506110ac565b603283101561108457600a60288461105b91906116b2565b60076110679190611658565b6110719190611627565b600761107d91906116b2565b90506110ab565b6032808461109291906116b2565b600761109e9190611658565b6110a89190611627565b90505b5b5b80915050919050565b600081836110c49190611627565b905092915050565b600081836110da9190611658565b905092915050565b600081836110f091906115d1565b905092915050565b6040518060800160405280600073ffffffffffffffffffffffffffffffffffffffff1681526020016000815260200160008152602001600081525090565b600081359050611145816117b0565b92915050565b60008151905061115a816117c7565b92915050565b60008135905061116f816117de565b92915050565b600081519050611184816117de565b92915050565b60006020828403121561119c57600080fd5b60006111aa84828501611136565b91505092915050565b6000602082840312156111c557600080fd5b60006111d38482850161114b565b91505092915050565b6000602082840312156111ee57600080fd5b60006111fc84828501611160565b91505092915050565b60006020828403121561121757600080fd5b600061122584828501611175565b91505092915050565b60008060006060848603121561124357600080fd5b600061125186828701611160565b935050602061126286828701611160565b925050604061127386828701611160565b9150509250925092565b611286816116e6565b82525050565b611295816116e6565b82525050565b6112a48161172e565b82525050565b60006112b76037836115c0565b91507f74686520757365722073686f756c64206861766520616e20616d6f756e74207260008301527f657761726420746f2068617665206120686172766573740000000000000000006020830152604082019050919050565b600061131d6029836115c0565b91507f4f6e6c7920706f736974696f6e2063726561746f72206d6179206d6f6469667960008301527f20706f736974696f6e00000000000000000000000000000000000000000000006020830152604082019050919050565b60006113836030836115c0565b91507f74686520757365722073686f756c64206861766520616e20616d6f756e74207360008301527f74616b656420746f20756e7374616b65000000000000000000000000000000006020830152604082019050919050565b6080820160008201516113f2600085018261127d565b5060208201516114056020850182611431565b5060408201516114186040850182611431565b50606082015161142b6060850182611431565b50505050565b61143a81611724565b82525050565b61144981611724565b82525050565b6000602082019050611464600083018461128c565b92915050565b600060608201905061147f600083018661128c565b61148c602083018561128c565b6114996040830184611440565b949350505050565b60006040820190506114b6600083018561128c565b6114c36020830184611440565b9392505050565b60006080820190506114df600083018761128c565b6114ec6020830186611440565b6114f96040830185611440565b6115066060830184611440565b95945050505050565b6000602082019050611524600083018461129b565b92915050565b60006020820190508181036000830152611543816112aa565b9050919050565b6000602082019050818103600083015261156381611310565b9050919050565b6000602082019050818103600083015261158381611376565b9050919050565b600060808201905061159f60008301846113dc565b92915050565b60006020820190506115ba6000830184611440565b92915050565b600082825260208201905092915050565b60006115dc82611724565b91506115e783611724565b9250827fffffffffffffffffffffffffffffffffffffffffffffffffffffffffffffffff0382111561161c5761161b611752565b5b828201905092915050565b600061163282611724565b915061163d83611724565b92508261164d5761164c611781565b5b828204905092915050565b600061166382611724565b915061166e83611724565b9250817fffffffffffffffffffffffffffffffffffffffffffffffffffffffffffffffff04831182151516156116a7576116a6611752565b5b828202905092915050565b60006116bd82611724565b91506116c883611724565b9250828210156116db576116da611752565b5b828203905092915050565b60006116f182611704565b9050919050565b60008115159050919050565b600073ffffffffffffffffffffffffffffffffffffffff82169050919050565b6000819050919050565b600061173982611740565b9050919050565b600061174b82611704565b9050919050565b7f4e487b7100000000000000000000000000000000000000000000000000000000600052601160045260246000fd5b7f4e487b7100000000000000000000000000000000000000000000000000000000600052601260045260246000fd5b6117b9816116e6565b81146117c457600080fd5b50565b6117d0816116f8565b81146117db57600080fd5b50565b6117e781611724565b81146117f257600080fd5b5056fea2646970667358221220c4db0e1eb68cf31f0e86460d5775dd010d5bcfe2d192b273c8161d0e67fe5c3b64736f6c63430008000033",
  "linkReferences": {},
  "deployedLinkReferences": {}
}