{
  "_format": "hh-sol-artifact-1",
  "contractName": "Staking",
  "sourceName": "contracts/Staking.sol",
  "abi": [
    {
      "inputs": [],
      "stateMutability": "payable",
      "type": "constructor"
    },
    {
      "inputs": [
        {
          "internalType": "uint256",
          "name": "positionId",
          "type": "uint256"
        },
        {
          "internalType": "uint256",
          "name": "newUnlockDate",
          "type": "uint256"
        }
      ],
      "name": "changeUnlockDate",
      "outputs": [],
      "stateMutability": "nonpayable",
      "type": "function"
    },
    {
      "inputs": [
        {
          "internalType": "uint256",
          "name": "positionId",
          "type": "uint256"
        }
      ],
      "name": "closePosition",
      "outputs": [],
      "stateMutability": "nonpayable",
      "type": "function"
    },
    {
      "inputs": [],
      "name": "currentPositionId",
      "outputs": [
        {
          "internalType": "uint256",
          "name": "",
          "type": "uint256"
        }
      ],
      "stateMutability": "view",
      "type": "function"
    },
    {
      "inputs": [
        {
          "internalType": "uint256",
          "name": "numDays",
          "type": "uint256"
        }
      ],
      "name": "getInterestRate",
      "outputs": [
        {
          "internalType": "uint256",
          "name": "",
          "type": "uint256"
        }
      ],
      "stateMutability": "view",
      "type": "function"
    },
    {
      "inputs": [],
      "name": "getLockPeriods",
      "outputs": [
        {
          "internalType": "uint256[]",
          "name": "",
          "type": "uint256[]"
        }
      ],
      "stateMutability": "view",
      "type": "function"
    },
    {
      "inputs": [
        {
          "internalType": "uint256",
          "name": "positionId",
          "type": "uint256"
        }
      ],
      "name": "getPositionByID",
      "outputs": [
        {
          "components": [
            {
              "internalType": "uint256",
              "name": "positionId",
              "type": "uint256"
            },
            {
              "internalType": "address",
              "name": "walletAddress",
              "type": "address"
            },
            {
              "internalType": "uint256",
              "name": "createdDate",
              "type": "uint256"
            },
            {
              "internalType": "uint256",
              "name": "unlockDate",
              "type": "uint256"
            },
            {
              "internalType": "uint256",
              "name": "percentInterest",
              "type": "uint256"
            },
            {
              "internalType": "uint256",
              "name": "weiStaked",
              "type": "uint256"
            },
            {
              "internalType": "uint256",
              "name": "weiInterest",
              "type": "uint256"
            },
            {
              "internalType": "bool",
              "name": "open",
              "type": "bool"
            }
          ],
          "internalType": "struct Staking.Position",
          "name": "",
          "type": "tuple"
        }
      ],
      "stateMutability": "view",
      "type": "function"
    },
    {
      "inputs": [
        {
          "internalType": "address",
          "name": "walletAddress",
          "type": "address"
        }
      ],
      "name": "getPositionIdsForAddress",
      "outputs": [
        {
          "internalType": "uint256[]",
          "name": "",
          "type": "uint256[]"
        }
      ],
      "stateMutability": "view",
      "type": "function"
    },
    {
      "inputs": [
        {
          "internalType": "uint256",
          "name": "",
          "type": "uint256"
        }
      ],
      "name": "lockPeriods",
      "outputs": [
        {
          "internalType": "uint256",
          "name": "",
          "type": "uint256"
        }
      ],
      "stateMutability": "view",
      "type": "function"
    },
    {
      "inputs": [
        {
          "internalType": "uint256",
          "name": "numDays",
          "type": "uint256"
        },
        {
          "internalType": "uint256",
          "name": "basisPoints",
          "type": "uint256"
        }
      ],
      "name": "modifyLockPeriods",
      "outputs": [],
      "stateMutability": "nonpayable",
      "type": "function"
    },
    {
      "inputs": [],
      "name": "owner",
      "outputs": [
        {
          "internalType": "address",
          "name": "",
          "type": "address"
        }
      ],
      "stateMutability": "view",
      "type": "function"
    },
    {
      "inputs": [
        {
          "internalType": "address",
          "name": "",
          "type": "address"
        },
        {
          "internalType": "uint256",
          "name": "",
          "type": "uint256"
        }
      ],
      "name": "positionIdsByAddress",
      "outputs": [
        {
          "internalType": "uint256",
          "name": "",
          "type": "uint256"
        }
      ],
      "stateMutability": "view",
      "type": "function"
    },
    {
      "inputs": [
        {
          "internalType": "uint256",
          "name": "",
          "type": "uint256"
        }
      ],
      "name": "positions",
      "outputs": [
        {
          "internalType": "uint256",
          "name": "positionId",
          "type": "uint256"
        },
        {
          "internalType": "address",
          "name": "walletAddress",
          "type": "address"
        },
        {
          "internalType": "uint256",
          "name": "createdDate",
          "type": "uint256"
        },
        {
          "internalType": "uint256",
          "name": "unlockDate",
          "type": "uint256"
        },
        {
          "internalType": "uint256",
          "name": "percentInterest",
          "type": "uint256"
        },
        {
          "internalType": "uint256",
          "name": "weiStaked",
          "type": "uint256"
        },
        {
          "internalType": "uint256",
          "name": "weiInterest",
          "type": "uint256"
        },
        {
          "internalType": "bool",
          "name": "open",
          "type": "bool"
        }
      ],
      "stateMutability": "view",
      "type": "function"
    },
    {
      "inputs": [
        {
          "internalType": "uint256",
          "name": "numDays",
          "type": "uint256"
        }
      ],
      "name": "stakeEther",
      "outputs": [],
      "stateMutability": "payable",
      "type": "function"
    },
    {
      "inputs": [
        {
          "internalType": "uint256",
          "name": "",
          "type": "uint256"
        }
      ],
      "name": "tiers",
      "outputs": [
        {
          "internalType": "uint256",
          "name": "",
          "type": "uint256"
        }
      ],
      "stateMutability": "view",
      "type": "function"
    }
  ],
  "bytecode": "0x6080604052336000806101000a81548173ffffffffffffffffffffffffffffffffffffffff021916908373ffffffffffffffffffffffffffffffffffffffff16021790555060006009819055506102bc600c6000601e8152602001908152602001600020819055506103e8600c6000605a8152602001908152602001600020819055506104b0600c600060b4815260200190815260200160002081905550600d601e9080600181540180825580915050600190039060005260206000200160009091909190915055600d605a9080600181540180825580915050600190039060005260206000200160009091909190915055600d60b490806001815401808255809150506001900390600052602060002001600090919091909150556114e78061012a6000396000f3fe6080604052600436106100dc5760003560e01c80634c8f2a781161007f578063a126d60111610059578063a126d60114610314578063b0f0475b1461033d578063c7c9d05514610366578063e4f908411461038f576100dc565b80634c8f2a78146102685780638da5cb5b146102a557806399fbab88146102d0576100dc565b80631131c8cd116100bb5780631131c8cd1461019857806340d98a44146101c357806341ee13be1461020057806345eae3731461022b576100dc565b806216e9c4146100e1578063039af9eb1461011e5780630c196a741461015b575b600080fd5b3480156100ed57600080fd5b5061010860048036038101906101039190610de3565b6103ab565b60405161011591906111f2565b60405180910390f35b34801561012a57600080fd5b5061014560048036038101906101409190610de3565b610486565b604051610152919061120e565b60405180910390f35b34801561016757600080fd5b50610182600480360381019061017d9190610de3565b61049e565b60405161018f919061120e565b60405180910390f35b3480156101a457600080fd5b506101ad6104bb565b6040516101ba919061120e565b60405180910390f35b3480156101cf57600080fd5b506101ea60048036038101906101e59190610d7e565b6104c1565b6040516101f79190611150565b60405180910390f35b34801561020c57600080fd5b50610215610558565b6040516102229190611150565b60405180910390f35b34801561023757600080fd5b50610252600480360381019061024d9190610da7565b6105b0565b60405161025f919061120e565b60405180910390f35b34801561027457600080fd5b5061028f600480360381019061028a9190610de3565b6105e1565b60405161029c919061120e565b60405180910390f35b3480156102b157600080fd5b506102ba610605565b6040516102c79190611135565b60405180910390f35b3480156102dc57600080fd5b506102f760048036038101906102f29190610de3565b610629565b60405161030b989796959493929190611229565b60405180910390f35b34801561032057600080fd5b5061033b60048036038101906103369190610de3565b61069e565b005b34801561034957600080fd5b50610364600480360381019061035f9190610e0c565b61091f565b005b34801561037257600080fd5b5061038d60048036038101906103889190610e0c565b6109f2565b005b6103a960048036038101906103a49190610de3565b610a9f565b005b6103b3610cf7565b600a600083815260200190815260200160002060405180610100016040529081600082015481526020016001820160009054906101000a900473ffffffffffffffffffffffffffffffffffffffff1673ffffffffffffffffffffffffffffffffffffffff1673ffffffffffffffffffffffffffffffffffffffff16815260200160028201548152602001600382015481526020016004820154815260200160058201548152602001600682015481526020016007820160009054906101000a900460ff1615151515815250509050919050565b600c6020528060005260406000206000915090505481565b6000600c6000838152602001908152602001600020549050919050565b60095481565b6060600b60008373ffffffffffffffffffffffffffffffffffffffff1673ffffffffffffffffffffffffffffffffffffffff16815260200190815260200160002080548060200260200160405190810160405280929190818152602001828054801561054c57602002820191906000526020600020905b815481526020019060010190808311610538575b50505050509050919050565b6060600d8054806020026020016040519081016040528092919081815260200182805480156105a657602002820191906000526020600020905b815481526020019060010190808311610592575b5050505050905090565b600b60205281600052604060002081815481106105cc57600080fd5b90600052602060002001600091509150505481565b600d81815481106105f157600080fd5b906000526020600020016000915090505481565b60008054906101000a900473ffffffffffffffffffffffffffffffffffffffff1681565b600a6020528060005260406000206000915090508060000154908060010160009054906101000a900473ffffffffffffffffffffffffffffffffffffffff16908060020154908060030154908060040154908060050154908060060154908060070160009054906101000a900460ff16905088565b3373ffffffffffffffffffffffffffffffffffffffff16600a600083815260200190815260200160002060010160009054906101000a900473ffffffffffffffffffffffffffffffffffffffff1673ffffffffffffffffffffffffffffffffffffffff1614610742576040517f08c379a0000000000000000000000000000000000000000000000000000000008152600401610739906111b2565b60405180910390fd5b60011515600a600083815260200190815260200160002060070160009054906101000a900460ff161515146107ac576040517f08c379a00000000000000000000000000000000000000000000000000000000081526004016107a3906111d2565b60405180910390fd5b60001515600a600083815260200190815260200160002060070160009054906101000a90505050600a60008281526020019081526020016000206003015442111561089c576000600a600083815260200190815260200160002060060154600a60008481526020019081526020016000206005015461082b91906112fc565b90503373ffffffffffffffffffffffffffffffffffffffff168160405161085190611120565b60006040518083038185875af1925050503d806000811461088e576040519150601f19603f3d011682016040523d82523d6000602084013e610893565b606091505b5050505061091c565b3373ffffffffffffffffffffffffffffffffffffffff16600a6000838152602001908152602001600020600501546040516108d690611120565b60006040518083038185875af1925050503d8060008114610913576040519150601f19603f3d011682016040523d82523d6000602084013e610918565b606091505b5050505b50565b3373ffffffffffffffffffffffffffffffffffffffff1660008054906101000a900473ffffffffffffffffffffffffffffffffffffffff1673ffffffffffffffffffffffffffffffffffffffff16146109ad576040517f08c379a00000000000000000000000000000000000000000000000000000000081526004016109a490611172565b60405180910390fd5b80600c600084815260200190815260200160002081905550600d8290806001815401808255809150506001900390600052602060002001600090919091909150555050565b3373ffffffffffffffffffffffffffffffffffffffff1660008054906101000a900473ffffffffffffffffffffffffffffffffffffffff1673ffffffffffffffffffffffffffffffffffffffff1614610a80576040517f08c379a0000000000000000000000000000000000000000000000000000000008152600401610a7790611172565b60405180910390fd5b80600a6000848152602001908152602001600020600301819055505050565b6000600c60008381526020019081526020016000205411610af5576040517f08c379a0000000000000000000000000000000000000000000000000000000008152600401610aec90611192565b60405180910390fd5b60405180610100016040528060095481526020013373ffffffffffffffffffffffffffffffffffffffff1681526020014281526020016201518083610b3a9190611383565b42610b4591906112fc565b8152602001600c6000848152602001908152602001600020548152602001348152602001610b87600c6000858152602001908152602001600020548434610cd3565b815260200160011515815250600a600060095481526020019081526020016000206000820151816000015560208201518160010160006101000a81548173ffffffffffffffffffffffffffffffffffffffff021916908373ffffffffffffffffffffffffffffffffffffffff16021790555060408201518160020155606082015181600301556080820151816004015560a0820151816005015560c0820151816006015560e08201518160070160006101000a81548160ff021916908315150217905550905050600b60003373ffffffffffffffffffffffffffffffffffffffff1673ffffffffffffffffffffffffffffffffffffffff1681526020019081526020016000206009549080600181540180825580915050600190039060005260206000200160009091909190915055600160096000828254610cc991906112fc565b9250508190555050565b60006127108285610ce49190611383565b610cee9190611352565b90509392505050565b60405180610100016040528060008152602001600073ffffffffffffffffffffffffffffffffffffffff16815260200160008152602001600081526020016000815260200160008152602001600081526020016000151581525090565b600081359050610d6381611483565b92915050565b600081359050610d788161149a565b92915050565b600060208284031215610d9057600080fd5b6000610d9e84828501610d54565b91505092915050565b60008060408385031215610dba57600080fd5b6000610dc885828601610d54565b9250506020610dd985828601610d69565b9150509250929050565b600060208284031215610df557600080fd5b6000610e0384828501610d69565b91505092915050565b60008060408385031215610e1f57600080fd5b6000610e2d85828601610d69565b9250506020610e3e85828601610d69565b9150509250929050565b6000610e548383611102565b60208301905092915050565b610e69816113dd565b82525050565b610e78816113dd565b82525050565b6000610e89826112b7565b610e9381856112cf565b9350610e9e836112a7565b8060005b83811015610ecf578151610eb68882610e48565b9750610ec1836112c2565b925050600181019050610ea2565b5085935050505092915050565b610ee5816113ef565b82525050565b610ef4816113ef565b82525050565b6000610f076025836112eb565b91507f4f6e6c79206f776e6572206d6179206d6f64696679207374616b696e6720706560008301527f72696f64730000000000000000000000000000000000000000000000000000006020830152604082019050919050565b6000610f6d6011836112eb565b91507f4d617070696e67206e6f7420666f756e640000000000000000000000000000006000830152602082019050919050565b6000610fad6029836112eb565b91507f4f6e6c7920706f736974696f6e2063726561746f72206d6179206d6f6469667960008301527f20706f736974696f6e00000000000000000000000000000000000000000000006020830152604082019050919050565b60006110136012836112eb565b91507f506f736974696f6e20697320636c6f73656400000000000000000000000000006000830152602082019050919050565b60006110536000836112e0565b9150600082019050919050565b610100820160008201516110776000850182611102565b50602082015161108a6020850182610e60565b50604082015161109d6040850182611102565b5060608201516110b06060850182611102565b5060808201516110c36080850182611102565b5060a08201516110d660a0850182611102565b5060c08201516110e960c0850182611102565b5060e08201516110fc60e0850182610edc565b50505050565b61110b8161141b565b82525050565b61111a8161141b565b82525050565b600061112b82611046565b9150819050919050565b600060208201905061114a6000830184610e6f565b92915050565b6000602082019050818103600083015261116a8184610e7e565b905092915050565b6000602082019050818103600083015261118b81610efa565b9050919050565b600060208201905081810360008301526111ab81610f60565b9050919050565b600060208201905081810360008301526111cb81610fa0565b9050919050565b600060208201905081810360008301526111eb81611006565b9050919050565b6000610100820190506112086000830184611060565b92915050565b60006020820190506112236000830184611111565b92915050565b60006101008201905061123f600083018b611111565b61124c602083018a610e6f565b6112596040830189611111565b6112666060830188611111565b6112736080830187611111565b61128060a0830186611111565b61128d60c0830185611111565b61129a60e0830184610eeb565b9998505050505050505050565b6000819050602082019050919050565b600081519050919050565b6000602082019050919050565b600082825260208201905092915050565b600081905092915050565b600082825260208201905092915050565b60006113078261141b565b91506113128361141b565b9250827fffffffffffffffffffffffffffffffffffffffffffffffffffffffffffffffff0382111561134757611346611425565b5b828201905092915050565b600061135d8261141b565b91506113688361141b565b92508261137857611377611454565b5b828204905092915050565b600061138e8261141b565b91506113998361141b565b9250817fffffffffffffffffffffffffffffffffffffffffffffffffffffffffffffffff04831182151516156113d2576113d1611425565b5b828202905092915050565b60006113e8826113fb565b9050919050565b60008115159050919050565b600073ffffffffffffffffffffffffffffffffffffffff82169050919050565b6000819050919050565b7f4e487b7100000000000000000000000000000000000000000000000000000000600052601160045260246000fd5b7f4e487b7100000000000000000000000000000000000000000000000000000000600052601260045260246000fd5b61148c816113dd565b811461149757600080fd5b50565b6114a38161141b565b81146114ae57600080fd5b5056fea26469706673582212200f4191588a706d4c7a3c07fd0ba1bd6d82fd37806ff562c2f7a903dc5141ea1764736f6c63430008000033",
  "linkReferences": {},
  "deployedLinkReferences": {}
}