{
  "_format": "hh-sol-artifact-1",
  "contractName": "Staking",
  "sourceName": "contracts/Staking.sol",
  "abi": [
    {
      "inputs": [
        {
          "internalType": "address",
          "name": "token",
          "type": "address"
        }
      ],
      "stateMutability": "nonpayable",
      "type": "constructor"
    },
    {
      "inputs": [
        {
          "internalType": "address",
          "name": "account",
          "type": "address"
        }
      ],
      "name": "checkBalance",
      "outputs": [
        {
          "internalType": "uint256",
          "name": "",
          "type": "uint256"
        }
      ],
      "stateMutability": "view",
      "type": "function"
    },
    {
      "inputs": [],
      "name": "getPositions",
      "outputs": [
        {
          "components": [
            {
              "internalType": "address",
              "name": "walletAddress",
              "type": "address"
            },
            {
              "internalType": "uint256",
              "name": "createdDate",
              "type": "uint256"
            },
            {
              "internalType": "uint256",
              "name": "amountStaked",
              "type": "uint256"
            },
            {
              "internalType": "uint256",
              "name": "rewardStaked",
              "type": "uint256"
            }
          ],
          "internalType": "struct Staking.Position",
          "name": "",
          "type": "tuple"
        }
      ],
      "stateMutability": "view",
      "type": "function"
    },
    {
      "inputs": [],
      "name": "getRewards",
      "outputs": [
        {
          "internalType": "uint256",
          "name": "",
          "type": "uint256"
        }
      ],
      "stateMutability": "view",
      "type": "function"
    },
    {
      "inputs": [],
      "name": "harvest",
      "outputs": [],
      "stateMutability": "nonpayable",
      "type": "function"
    },
    {
      "inputs": [],
      "name": "owner",
      "outputs": [
        {
          "internalType": "address",
          "name": "",
          "type": "address"
        }
      ],
      "stateMutability": "view",
      "type": "function"
    },
    {
      "inputs": [
        {
          "internalType": "uint256",
          "name": "apr",
          "type": "uint256"
        },
        {
          "internalType": "uint256",
          "name": "amountStaked",
          "type": "uint256"
        },
        {
          "internalType": "uint256",
          "name": "startDate",
          "type": "uint256"
        }
      ],
      "name": "reward",
      "outputs": [
        {
          "internalType": "uint256",
          "name": "",
          "type": "uint256"
        }
      ],
      "stateMutability": "view",
      "type": "function"
    },
    {
      "inputs": [
        {
          "internalType": "uint256",
          "name": "amount",
          "type": "uint256"
        }
      ],
      "name": "stake",
      "outputs": [],
      "stateMutability": "nonpayable",
      "type": "function"
    },
    {
      "inputs": [],
      "name": "stakingToken",
      "outputs": [
        {
          "internalType": "contract IERC20",
          "name": "",
          "type": "address"
        }
      ],
      "stateMutability": "view",
      "type": "function"
    },
    {
      "inputs": [],
      "name": "unstake",
      "outputs": [],
      "stateMutability": "nonpayable",
      "type": "function"
    }
  ],
  "bytecode": "0x60806040526161a860025534801561001657600080fd5b50604051611156380380611156833981810160405281019061003891906100d4565b336000806101000a81548173ffffffffffffffffffffffffffffffffffffffff021916908373ffffffffffffffffffffffffffffffffffffffff16021790555080600160006101000a81548173ffffffffffffffffffffffffffffffffffffffff021916908373ffffffffffffffffffffffffffffffffffffffff16021790555050610146565b6000815190506100ce8161012f565b92915050565b6000602082840312156100e657600080fd5b60006100f4848285016100bf565b91505092915050565b60006101088261010f565b9050919050565b600073ffffffffffffffffffffffffffffffffffffffff82169050919050565b610138816100fd565b811461014357600080fd5b50565b611001806101556000396000f3fe608060405234801561001057600080fd5b50600436106100935760003560e01c80635f515226116100665780635f515226146100fa57806372f702f31461012a57806380275860146101485780638da5cb5b14610166578063a694fc3a1461018457610093565b8063035694b6146100985780630572b0cc146100c85780632def6620146100e65780634641257d146100f0575b600080fd5b6100b260048036038101906100ad9190610a49565b6101a0565b6040516100bf9190610d7b565b60405180910390f35b6100d0610259565b6040516100dd9190610d7b565b60405180910390f35b6100ee610282565b005b6100f8610420565b005b610114600480360381019061010f91906109a5565b6105f1565b6040516101219190610d7b565b60405180910390f35b6101326106a5565b60405161013f9190610ce5565b60405180910390f35b6101506106cb565b60405161015d9190610d60565b60405180910390f35b61016e610759565b60405161017b9190610c6a565b60405180910390f35b61019e600480360381019061019991906109f7565b61077d565b005b60008082426101af9190610e88565b905060006101c7603c836108e790919063ffffffff16565b905060006101e5662386f26fc10000886108fd90919063ffffffff16565b905060006101ff62080520836108e790919063ffffffff16565b90506000610230670de0b6b3a7640000610222848b6108fd90919063ffffffff16565b6108e790919063ffffffff16565b9050600061024785836108fd90919063ffffffff16565b90508096505050505050509392505050565b60008060025490506000610278826003600201546003600101546101a0565b9050809250505090565b3373ffffffffffffffffffffffffffffffffffffffff16600360000160009054906101000a900473ffffffffffffffffffffffffffffffffffffffff1673ffffffffffffffffffffffffffffffffffffffff1614610315576040517f08c379a000000000000000000000000000000000000000000000000000000000815260040161030c90610d20565b60405180910390fd5b6000600360020154141561035e576040517f08c379a000000000000000000000000000000000000000000000000000000000815260040161035590610d40565b60405180910390fd5b600160009054906101000a900473ffffffffffffffffffffffffffffffffffffffff1673ffffffffffffffffffffffffffffffffffffffff1663a9059cbb336003600201546040518363ffffffff1660e01b81526004016103c0929190610cbc565b602060405180830381600087803b1580156103da57600080fd5b505af11580156103ee573d6000803e3d6000fd5b505050506040513d601f19601f8201168201806040525081019061041291906109ce565b506000600360020181905550565b60006002549050600061043e826003600201546003600101546101a0565b90508060038001819055503373ffffffffffffffffffffffffffffffffffffffff16600360000160009054906101000a900473ffffffffffffffffffffffffffffffffffffffff1673ffffffffffffffffffffffffffffffffffffffff16146104dc576040517f08c379a00000000000000000000000000000000000000000000000000000000081526004016104d390610d20565b60405180910390fd5b600060038001541415610524576040517f08c379a000000000000000000000000000000000000000000000000000000000815260040161051b90610d00565b60405180910390fd5b600160009054906101000a900473ffffffffffffffffffffffffffffffffffffffff1673ffffffffffffffffffffffffffffffffffffffff1663a9059cbb3360038001546040518363ffffffff1660e01b8152600401610585929190610cbc565b602060405180830381600087803b15801561059f57600080fd5b505af11580156105b3573d6000803e3d6000fd5b505050506040513d601f19601f820116820180604052508101906105d791906109ce565b506000600360010181905550600060038001819055505050565b6000600160009054906101000a900473ffffffffffffffffffffffffffffffffffffffff1673ffffffffffffffffffffffffffffffffffffffff166370a08231836040518263ffffffff1660e01b815260040161064e9190610c6a565b60206040518083038186803b15801561066657600080fd5b505afa15801561067a573d6000803e3d6000fd5b505050506040513d601f19601f8201168201806040525081019061069e9190610a20565b9050919050565b600160009054906101000a900473ffffffffffffffffffffffffffffffffffffffff1681565b6106d3610913565b60036040518060800160405290816000820160009054906101000a900473ffffffffffffffffffffffffffffffffffffffff1673ffffffffffffffffffffffffffffffffffffffff1673ffffffffffffffffffffffffffffffffffffffff1681526020016001820154815260200160028201548152602001600382015481525050905090565b60008054906101000a900473ffffffffffffffffffffffffffffffffffffffff1681565b600160009054906101000a900473ffffffffffffffffffffffffffffffffffffffff1673ffffffffffffffffffffffffffffffffffffffff166323b872dd3330846040518463ffffffff1660e01b81526004016107dc93929190610c85565b602060405180830381600087803b1580156107f657600080fd5b505af115801561080a573d6000803e3d6000fd5b505050506040513d601f19601f8201168201806040525081019061082e91906109ce565b5060405180608001604052803373ffffffffffffffffffffffffffffffffffffffff1681526020014281526020018260036002015461086d9190610da7565b81526020016003800154815250600360008201518160000160006101000a81548173ffffffffffffffffffffffffffffffffffffffff021916908373ffffffffffffffffffffffffffffffffffffffff16021790555060208201518160010155604082015181600201556060820151816003015590505050565b600081836108f59190610dfd565b905092915050565b6000818361090b9190610e2e565b905092915050565b6040518060800160405280600073ffffffffffffffffffffffffffffffffffffffff1681526020016000815260200160008152602001600081525090565b60008135905061096081610f86565b92915050565b60008151905061097581610f9d565b92915050565b60008135905061098a81610fb4565b92915050565b60008151905061099f81610fb4565b92915050565b6000602082840312156109b757600080fd5b60006109c584828501610951565b91505092915050565b6000602082840312156109e057600080fd5b60006109ee84828501610966565b91505092915050565b600060208284031215610a0957600080fd5b6000610a178482850161097b565b91505092915050565b600060208284031215610a3257600080fd5b6000610a4084828501610990565b91505092915050565b600080600060608486031215610a5e57600080fd5b6000610a6c8682870161097b565b9350506020610a7d8682870161097b565b9250506040610a8e8682870161097b565b9150509250925092565b610aa181610ebc565b82525050565b610ab081610ebc565b82525050565b610abf81610f04565b82525050565b6000610ad2603783610d96565b91507f74686520757365722073686f756c64206861766520616e20616d6f756e74207260008301527f657761726420746f2068617665206120686172766573740000000000000000006020830152604082019050919050565b6000610b38602983610d96565b91507f4f6e6c7920706f736974696f6e2063726561746f72206d6179206d6f6469667960008301527f20706f736974696f6e00000000000000000000000000000000000000000000006020830152604082019050919050565b6000610b9e603083610d96565b91507f74686520757365722073686f756c64206861766520616e20616d6f756e74207360008301527f74616b656420746f20756e7374616b65000000000000000000000000000000006020830152604082019050919050565b608082016000820151610c0d6000850182610a98565b506020820151610c206020850182610c4c565b506040820151610c336040850182610c4c565b506060820151610c466060850182610c4c565b50505050565b610c5581610efa565b82525050565b610c6481610efa565b82525050565b6000602082019050610c7f6000830184610aa7565b92915050565b6000606082019050610c9a6000830186610aa7565b610ca76020830185610aa7565b610cb46040830184610c5b565b949350505050565b6000604082019050610cd16000830185610aa7565b610cde6020830184610c5b565b9392505050565b6000602082019050610cfa6000830184610ab6565b92915050565b60006020820190508181036000830152610d1981610ac5565b9050919050565b60006020820190508181036000830152610d3981610b2b565b9050919050565b60006020820190508181036000830152610d5981610b91565b9050919050565b6000608082019050610d756000830184610bf7565b92915050565b6000602082019050610d906000830184610c5b565b92915050565b600082825260208201905092915050565b6000610db282610efa565b9150610dbd83610efa565b9250827fffffffffffffffffffffffffffffffffffffffffffffffffffffffffffffffff03821115610df257610df1610f28565b5b828201905092915050565b6000610e0882610efa565b9150610e1383610efa565b925082610e2357610e22610f57565b5b828204905092915050565b6000610e3982610efa565b9150610e4483610efa565b9250817fffffffffffffffffffffffffffffffffffffffffffffffffffffffffffffffff0483118215151615610e7d57610e7c610f28565b5b828202905092915050565b6000610e9382610efa565b9150610e9e83610efa565b925082821015610eb157610eb0610f28565b5b828203905092915050565b6000610ec782610eda565b9050919050565b60008115159050919050565b600073ffffffffffffffffffffffffffffffffffffffff82169050919050565b6000819050919050565b6000610f0f82610f16565b9050919050565b6000610f2182610eda565b9050919050565b7f4e487b7100000000000000000000000000000000000000000000000000000000600052601160045260246000fd5b7f4e487b7100000000000000000000000000000000000000000000000000000000600052601260045260246000fd5b610f8f81610ebc565b8114610f9a57600080fd5b50565b610fa681610ece565b8114610fb157600080fd5b50565b610fbd81610efa565b8114610fc857600080fd5b5056fea26469706673582212204563f88737f4e77ca231368fb6d858b97318a8d80d4623b749934be8c5bc23e964736f6c63430008000033",
  "linkReferences": {},
  "deployedLinkReferences": {}
}