{
  "_format": "hh-sol-artifact-1",
  "contractName": "Staking",
  "sourceName": "contracts/Staking.sol",
  "abi": [
    {
      "inputs": [],
      "stateMutability": "payable",
      "type": "constructor"
    },
    {
      "inputs": [
        {
          "internalType": "uint256",
          "name": "positionId",
          "type": "uint256"
        },
        {
          "internalType": "uint256",
          "name": "newUnlockDate",
          "type": "uint256"
        }
      ],
      "name": "changeUnlockDate",
      "outputs": [],
      "stateMutability": "nonpayable",
      "type": "function"
    },
    {
      "inputs": [
        {
          "internalType": "uint256",
          "name": "positionId",
          "type": "uint256"
        }
      ],
      "name": "closePosition",
      "outputs": [],
      "stateMutability": "nonpayable",
      "type": "function"
    },
    {
      "inputs": [],
      "name": "currentPositionId",
      "outputs": [
        {
          "internalType": "uint256",
          "name": "",
          "type": "uint256"
        }
      ],
      "stateMutability": "view",
      "type": "function"
    },
    {
      "inputs": [
        {
          "internalType": "uint256",
          "name": "numDays",
          "type": "uint256"
        }
      ],
      "name": "getInterestRate",
      "outputs": [
        {
          "internalType": "uint256",
          "name": "",
          "type": "uint256"
        }
      ],
      "stateMutability": "view",
      "type": "function"
    },
    {
      "inputs": [],
      "name": "getLockPeriods",
      "outputs": [
        {
          "internalType": "uint256[]",
          "name": "",
          "type": "uint256[]"
        }
      ],
      "stateMutability": "view",
      "type": "function"
    },
    {
      "inputs": [
        {
          "internalType": "uint256",
          "name": "positionId",
          "type": "uint256"
        }
      ],
      "name": "getPositionByID",
      "outputs": [
        {
          "components": [
            {
              "internalType": "uint256",
              "name": "positionId",
              "type": "uint256"
            },
            {
              "internalType": "address",
              "name": "walletAddress",
              "type": "address"
            },
            {
              "internalType": "uint256",
              "name": "createdDate",
              "type": "uint256"
            },
            {
              "internalType": "uint256",
              "name": "unlockDate",
              "type": "uint256"
            },
            {
              "internalType": "uint256",
              "name": "percentInterest",
              "type": "uint256"
            },
            {
              "internalType": "uint256",
              "name": "weiStaked",
              "type": "uint256"
            },
            {
              "internalType": "uint256",
              "name": "weiInterest",
              "type": "uint256"
            },
            {
              "internalType": "bool",
              "name": "open",
              "type": "bool"
            }
          ],
          "internalType": "struct Staking.Position",
          "name": "",
          "type": "tuple"
        }
      ],
      "stateMutability": "view",
      "type": "function"
    },
    {
      "inputs": [
        {
          "internalType": "address",
          "name": "walletAddress",
          "type": "address"
        }
      ],
      "name": "getPositionIdsForAddress",
      "outputs": [
        {
          "internalType": "uint256[]",
          "name": "",
          "type": "uint256[]"
        }
      ],
      "stateMutability": "view",
      "type": "function"
    },
    {
      "inputs": [
        {
          "internalType": "uint256",
          "name": "",
          "type": "uint256"
        }
      ],
      "name": "lockPeriods",
      "outputs": [
        {
          "internalType": "uint256",
          "name": "",
          "type": "uint256"
        }
      ],
      "stateMutability": "view",
      "type": "function"
    },
    {
      "inputs": [
        {
          "internalType": "uint256",
          "name": "numDays",
          "type": "uint256"
        },
        {
          "internalType": "uint256",
          "name": "basisPoints",
          "type": "uint256"
        }
      ],
      "name": "modifyLockPeriods",
      "outputs": [],
      "stateMutability": "nonpayable",
      "type": "function"
    },
    {
      "inputs": [],
      "name": "owner",
      "outputs": [
        {
          "internalType": "address",
          "name": "",
          "type": "address"
        }
      ],
      "stateMutability": "view",
      "type": "function"
    },
    {
      "inputs": [
        {
          "internalType": "address",
          "name": "",
          "type": "address"
        },
        {
          "internalType": "uint256",
          "name": "",
          "type": "uint256"
        }
      ],
      "name": "positionIdsByAddress",
      "outputs": [
        {
          "internalType": "uint256",
          "name": "",
          "type": "uint256"
        }
      ],
      "stateMutability": "view",
      "type": "function"
    },
    {
      "inputs": [
        {
          "internalType": "uint256",
          "name": "",
          "type": "uint256"
        }
      ],
      "name": "positions",
      "outputs": [
        {
          "internalType": "uint256",
          "name": "positionId",
          "type": "uint256"
        },
        {
          "internalType": "address",
          "name": "walletAddress",
          "type": "address"
        },
        {
          "internalType": "uint256",
          "name": "createdDate",
          "type": "uint256"
        },
        {
          "internalType": "uint256",
          "name": "unlockDate",
          "type": "uint256"
        },
        {
          "internalType": "uint256",
          "name": "percentInterest",
          "type": "uint256"
        },
        {
          "internalType": "uint256",
          "name": "weiStaked",
          "type": "uint256"
        },
        {
          "internalType": "uint256",
          "name": "weiInterest",
          "type": "uint256"
        },
        {
          "internalType": "bool",
          "name": "open",
          "type": "bool"
        }
      ],
      "stateMutability": "view",
      "type": "function"
    },
    {
      "inputs": [
        {
          "internalType": "uint256",
          "name": "numDays",
          "type": "uint256"
        }
      ],
      "name": "stakeEther",
      "outputs": [],
      "stateMutability": "payable",
      "type": "function"
    },
    {
      "inputs": [
        {
          "internalType": "uint256",
          "name": "",
          "type": "uint256"
        }
      ],
      "name": "tiers",
      "outputs": [
        {
          "internalType": "uint256",
          "name": "",
          "type": "uint256"
        }
      ],
      "stateMutability": "view",
      "type": "function"
    }
  ],
  "bytecode": "0x6080604052336000806101000a81548173ffffffffffffffffffffffffffffffffffffffff021916908373ffffffffffffffffffffffffffffffffffffffff16021790555060006009819055506102bc600c6000601e8152602001908152602001600020819055506103e8600c6000605a8152602001908152602001600020819055506104b0600c600060b4815260200190815260200160002081905550600d601e9080600181540180825580915050600190039060005260206000200160009091909190915055600d605a9080600181540180825580915050600190039060005260206000200160009091909190915055600d60b490806001815401808255809150506001900390600052602060002001600090919091909150556114ef8061012a6000396000f3fe6080604052600436106100dc5760003560e01c80634c8f2a781161007f578063a126d60111610059578063a126d60114610314578063b0f0475b1461033d578063c7c9d05514610366578063e4f908411461038f576100dc565b80634c8f2a78146102685780638da5cb5b146102a557806399fbab88146102d0576100dc565b80631131c8cd116100bb5780631131c8cd1461019857806340d98a44146101c357806341ee13be1461020057806345eae3731461022b576100dc565b806216e9c4146100e1578063039af9eb1461011e5780630c196a741461015b575b600080fd5b3480156100ed57600080fd5b5061010860048036038101906101039190610deb565b6103ab565b60405161011591906111fa565b60405180910390f35b34801561012a57600080fd5b5061014560048036038101906101409190610deb565b610486565b6040516101529190611216565b60405180910390f35b34801561016757600080fd5b50610182600480360381019061017d9190610deb565b61049e565b60405161018f9190611216565b60405180910390f35b3480156101a457600080fd5b506101ad6104bb565b6040516101ba9190611216565b60405180910390f35b3480156101cf57600080fd5b506101ea60048036038101906101e59190610d86565b6104c1565b6040516101f79190611158565b60405180910390f35b34801561020c57600080fd5b50610215610558565b6040516102229190611158565b60405180910390f35b34801561023757600080fd5b50610252600480360381019061024d9190610daf565b6105b0565b60405161025f9190611216565b60405180910390f35b34801561027457600080fd5b5061028f600480360381019061028a9190610deb565b6105e1565b60405161029c9190611216565b60405180910390f35b3480156102b157600080fd5b506102ba610605565b6040516102c7919061113d565b60405180910390f35b3480156102dc57600080fd5b506102f760048036038101906102f29190610deb565b610629565b60405161030b989796959493929190611231565b60405180910390f35b34801561032057600080fd5b5061033b60048036038101906103369190610deb565b61069e565b005b34801561034957600080fd5b50610364600480360381019061035f9190610e14565b610927565b005b34801561037257600080fd5b5061038d60048036038101906103889190610e14565b6109fa565b005b6103a960048036038101906103a49190610deb565b610aa7565b005b6103b3610cff565b600a600083815260200190815260200160002060405180610100016040529081600082015481526020016001820160009054906101000a900473ffffffffffffffffffffffffffffffffffffffff1673ffffffffffffffffffffffffffffffffffffffff1673ffffffffffffffffffffffffffffffffffffffff16815260200160028201548152602001600382015481526020016004820154815260200160058201548152602001600682015481526020016007820160009054906101000a900460ff1615151515815250509050919050565b600c6020528060005260406000206000915090505481565b6000600c6000838152602001908152602001600020549050919050565b60095481565b6060600b60008373ffffffffffffffffffffffffffffffffffffffff1673ffffffffffffffffffffffffffffffffffffffff16815260200190815260200160002080548060200260200160405190810160405280929190818152602001828054801561054c57602002820191906000526020600020905b815481526020019060010190808311610538575b50505050509050919050565b6060600d8054806020026020016040519081016040528092919081815260200182805480156105a657602002820191906000526020600020905b815481526020019060010190808311610592575b5050505050905090565b600b60205281600052604060002081815481106105cc57600080fd5b90600052602060002001600091509150505481565b600d81815481106105f157600080fd5b906000526020600020016000915090505481565b60008054906101000a900473ffffffffffffffffffffffffffffffffffffffff1681565b600a6020528060005260406000206000915090508060000154908060010160009054906101000a900473ffffffffffffffffffffffffffffffffffffffff16908060020154908060030154908060040154908060050154908060060154908060070160009054906101000a900460ff16905088565b3373ffffffffffffffffffffffffffffffffffffffff16600a600083815260200190815260200160002060010160009054906101000a900473ffffffffffffffffffffffffffffffffffffffff1673ffffffffffffffffffffffffffffffffffffffff1614610742576040517f08c379a0000000000000000000000000000000000000000000000000000000008152600401610739906111ba565b60405180910390fd5b60011515600a600083815260200190815260200160002060070160009054906101000a900460ff161515146107ac576040517f08c379a00000000000000000000000000000000000000000000000000000000081526004016107a3906111da565b60405180910390fd5b6000600a600083815260200190815260200160002060070160006101000a81548160ff021916908315150217905550600a6000828152602001908152602001600020600301544211156108a4576000600a600083815260200190815260200160002060060154600a6000848152602001908152602001600020600501546108339190611304565b90503373ffffffffffffffffffffffffffffffffffffffff168160405161085990611128565b60006040518083038185875af1925050503d8060008114610896576040519150601f19603f3d011682016040523d82523d6000602084013e61089b565b606091505b50505050610924565b3373ffffffffffffffffffffffffffffffffffffffff16600a6000838152602001908152602001600020600501546040516108de90611128565b60006040518083038185875af1925050503d806000811461091b576040519150601f19603f3d011682016040523d82523d6000602084013e610920565b606091505b5050505b50565b3373ffffffffffffffffffffffffffffffffffffffff1660008054906101000a900473ffffffffffffffffffffffffffffffffffffffff1673ffffffffffffffffffffffffffffffffffffffff16146109b5576040517f08c379a00000000000000000000000000000000000000000000000000000000081526004016109ac9061117a565b60405180910390fd5b80600c600084815260200190815260200160002081905550600d8290806001815401808255809150506001900390600052602060002001600090919091909150555050565b3373ffffffffffffffffffffffffffffffffffffffff1660008054906101000a900473ffffffffffffffffffffffffffffffffffffffff1673ffffffffffffffffffffffffffffffffffffffff1614610a88576040517f08c379a0000000000000000000000000000000000000000000000000000000008152600401610a7f9061117a565b60405180910390fd5b80600a6000848152602001908152602001600020600301819055505050565b6000600c60008381526020019081526020016000205411610afd576040517f08c379a0000000000000000000000000000000000000000000000000000000008152600401610af49061119a565b60405180910390fd5b60405180610100016040528060095481526020013373ffffffffffffffffffffffffffffffffffffffff1681526020014281526020016201518083610b42919061138b565b42610b4d9190611304565b8152602001600c6000848152602001908152602001600020548152602001348152602001610b8f600c6000858152602001908152602001600020548434610cdb565b815260200160011515815250600a600060095481526020019081526020016000206000820151816000015560208201518160010160006101000a81548173ffffffffffffffffffffffffffffffffffffffff021916908373ffffffffffffffffffffffffffffffffffffffff16021790555060408201518160020155606082015181600301556080820151816004015560a0820151816005015560c0820151816006015560e08201518160070160006101000a81548160ff021916908315150217905550905050600b60003373ffffffffffffffffffffffffffffffffffffffff1673ffffffffffffffffffffffffffffffffffffffff1681526020019081526020016000206009549080600181540180825580915050600190039060005260206000200160009091909190915055600160096000828254610cd19190611304565b9250508190555050565b60006127108285610cec919061138b565b610cf6919061135a565b90509392505050565b60405180610100016040528060008152602001600073ffffffffffffffffffffffffffffffffffffffff16815260200160008152602001600081526020016000815260200160008152602001600081526020016000151581525090565b600081359050610d6b8161148b565b92915050565b600081359050610d80816114a2565b92915050565b600060208284031215610d9857600080fd5b6000610da684828501610d5c565b91505092915050565b60008060408385031215610dc257600080fd5b6000610dd085828601610d5c565b9250506020610de185828601610d71565b9150509250929050565b600060208284031215610dfd57600080fd5b6000610e0b84828501610d71565b91505092915050565b60008060408385031215610e2757600080fd5b6000610e3585828601610d71565b9250506020610e4685828601610d71565b9150509250929050565b6000610e5c838361110a565b60208301905092915050565b610e71816113e5565b82525050565b610e80816113e5565b82525050565b6000610e91826112bf565b610e9b81856112d7565b9350610ea6836112af565b8060005b83811015610ed7578151610ebe8882610e50565b9750610ec9836112ca565b925050600181019050610eaa565b5085935050505092915050565b610eed816113f7565b82525050565b610efc816113f7565b82525050565b6000610f0f6025836112f3565b91507f4f6e6c79206f776e6572206d6179206d6f64696679207374616b696e6720706560008301527f72696f64730000000000000000000000000000000000000000000000000000006020830152604082019050919050565b6000610f756011836112f3565b91507f4d617070696e67206e6f7420666f756e640000000000000000000000000000006000830152602082019050919050565b6000610fb56029836112f3565b91507f4f6e6c7920706f736974696f6e2063726561746f72206d6179206d6f6469667960008301527f20706f736974696f6e00000000000000000000000000000000000000000000006020830152604082019050919050565b600061101b6012836112f3565b91507f506f736974696f6e20697320636c6f73656400000000000000000000000000006000830152602082019050919050565b600061105b6000836112e8565b9150600082019050919050565b6101008201600082015161107f600085018261110a565b5060208201516110926020850182610e68565b5060408201516110a5604085018261110a565b5060608201516110b8606085018261110a565b5060808201516110cb608085018261110a565b5060a08201516110de60a085018261110a565b5060c08201516110f160c085018261110a565b5060e082015161110460e0850182610ee4565b50505050565b61111381611423565b82525050565b61112281611423565b82525050565b60006111338261104e565b9150819050919050565b60006020820190506111526000830184610e77565b92915050565b600060208201905081810360008301526111728184610e86565b905092915050565b6000602082019050818103600083015261119381610f02565b9050919050565b600060208201905081810360008301526111b381610f68565b9050919050565b600060208201905081810360008301526111d381610fa8565b9050919050565b600060208201905081810360008301526111f38161100e565b9050919050565b6000610100820190506112106000830184611068565b92915050565b600060208201905061122b6000830184611119565b92915050565b600061010082019050611247600083018b611119565b611254602083018a610e77565b6112616040830189611119565b61126e6060830188611119565b61127b6080830187611119565b61128860a0830186611119565b61129560c0830185611119565b6112a260e0830184610ef3565b9998505050505050505050565b6000819050602082019050919050565b600081519050919050565b6000602082019050919050565b600082825260208201905092915050565b600081905092915050565b600082825260208201905092915050565b600061130f82611423565b915061131a83611423565b9250827fffffffffffffffffffffffffffffffffffffffffffffffffffffffffffffffff0382111561134f5761134e61142d565b5b828201905092915050565b600061136582611423565b915061137083611423565b9250826113805761137f61145c565b5b828204905092915050565b600061139682611423565b91506113a183611423565b9250817fffffffffffffffffffffffffffffffffffffffffffffffffffffffffffffffff04831182151516156113da576113d961142d565b5b828202905092915050565b60006113f082611403565b9050919050565b60008115159050919050565b600073ffffffffffffffffffffffffffffffffffffffff82169050919050565b6000819050919050565b7f4e487b7100000000000000000000000000000000000000000000000000000000600052601160045260246000fd5b7f4e487b7100000000000000000000000000000000000000000000000000000000600052601260045260246000fd5b611494816113e5565b811461149f57600080fd5b50565b6114ab81611423565b81146114b657600080fd5b5056fea2646970667358221220969a4f2de4ab01068b65df6b01d3031117fc09081ecd463301e914693710b57f64736f6c63430008000033",
  "linkReferences": {},
  "deployedLinkReferences": {}
}