{
  "_format": "hh-sol-artifact-1",
  "contractName": "Staking",
  "sourceName": "contracts/Staking.sol",
  "abi": [
    {
      "inputs": [
        {
          "internalType": "address",
          "name": "token",
          "type": "address"
        }
      ],
      "stateMutability": "nonpayable",
      "type": "constructor"
    },
    {
      "inputs": [
        {
          "internalType": "uint256",
          "name": "totalStakedPercentage",
          "type": "uint256"
        }
      ],
      "name": "calculateAPR",
      "outputs": [
        {
          "internalType": "uint256",
          "name": "",
          "type": "uint256"
        }
      ],
      "stateMutability": "pure",
      "type": "function"
    },
    {
      "inputs": [
        {
          "internalType": "address",
          "name": "account",
          "type": "address"
        }
      ],
      "name": "checkBalance",
      "outputs": [
        {
          "internalType": "uint256",
          "name": "",
          "type": "uint256"
        }
      ],
      "stateMutability": "view",
      "type": "function"
    },
    {
      "inputs": [],
      "name": "getAPR",
      "outputs": [
        {
          "internalType": "uint256",
          "name": "",
          "type": "uint256"
        }
      ],
      "stateMutability": "view",
      "type": "function"
    },
    {
      "inputs": [],
      "name": "getPositions",
      "outputs": [
        {
          "components": [
            {
              "internalType": "address",
              "name": "walletAddress",
              "type": "address"
            },
            {
              "internalType": "uint256",
              "name": "createdDate",
              "type": "uint256"
            },
            {
              "internalType": "uint256",
              "name": "amountStaked",
              "type": "uint256"
            },
            {
              "internalType": "uint256",
              "name": "rewardStaked",
              "type": "uint256"
            }
          ],
          "internalType": "struct Staking.Position",
          "name": "",
          "type": "tuple"
        }
      ],
      "stateMutability": "view",
      "type": "function"
    },
    {
      "inputs": [],
      "name": "getRewards",
      "outputs": [
        {
          "internalType": "uint256",
          "name": "",
          "type": "uint256"
        }
      ],
      "stateMutability": "view",
      "type": "function"
    },
    {
      "inputs": [],
      "name": "harvest",
      "outputs": [],
      "stateMutability": "nonpayable",
      "type": "function"
    },
    {
      "inputs": [],
      "name": "owner",
      "outputs": [
        {
          "internalType": "address",
          "name": "",
          "type": "address"
        }
      ],
      "stateMutability": "view",
      "type": "function"
    },
    {
      "inputs": [
        {
          "internalType": "address",
          "name": "",
          "type": "address"
        }
      ],
      "name": "positions",
      "outputs": [
        {
          "internalType": "address",
          "name": "walletAddress",
          "type": "address"
        },
        {
          "internalType": "uint256",
          "name": "createdDate",
          "type": "uint256"
        },
        {
          "internalType": "uint256",
          "name": "amountStaked",
          "type": "uint256"
        },
        {
          "internalType": "uint256",
          "name": "rewardStaked",
          "type": "uint256"
        }
      ],
      "stateMutability": "view",
      "type": "function"
    },
    {
      "inputs": [
        {
          "internalType": "uint256",
          "name": "apr",
          "type": "uint256"
        },
        {
          "internalType": "uint256",
          "name": "amountStaked",
          "type": "uint256"
        },
        {
          "internalType": "uint256",
          "name": "startDate",
          "type": "uint256"
        }
      ],
      "name": "reward",
      "outputs": [
        {
          "internalType": "uint256",
          "name": "",
          "type": "uint256"
        }
      ],
      "stateMutability": "view",
      "type": "function"
    },
    {
      "inputs": [
        {
          "internalType": "uint256",
          "name": "amount",
          "type": "uint256"
        }
      ],
      "name": "stake",
      "outputs": [],
      "stateMutability": "nonpayable",
      "type": "function"
    },
    {
      "inputs": [],
      "name": "stakingToken",
      "outputs": [
        {
          "internalType": "contract IERC20",
          "name": "",
          "type": "address"
        }
      ],
      "stateMutability": "view",
      "type": "function"
    },
    {
      "inputs": [],
      "name": "unstake",
      "outputs": [],
      "stateMutability": "nonpayable",
      "type": "function"
    }
  ],
  "bytecode": "0x60806040523480156200001157600080fd5b506040516200199f3803806200199f8339818101604052810190620000379190620000d6565b336000806101000a81548173ffffffffffffffffffffffffffffffffffffffff021916908373ffffffffffffffffffffffffffffffffffffffff16021790555080600160006101000a81548173ffffffffffffffffffffffffffffffffffffffff021916908373ffffffffffffffffffffffffffffffffffffffff1602179055505062000150565b600081519050620000d08162000136565b92915050565b600060208284031215620000e957600080fd5b6000620000f984828501620000bf565b91505092915050565b60006200010f8262000116565b9050919050565b600073ffffffffffffffffffffffffffffffffffffffff82169050919050565b620001418162000102565b81146200014d57600080fd5b50565b61183f80620001606000396000f3fe608060405234801561001057600080fd5b50600436106100b45760003560e01c806372f702f31161007157806372f702f31461017e578063802758601461019c5780638da5cb5b146101ba578063a694fc3a146101d8578063c89d5b8b146101f4578063d1a02a8614610212576100b4565b8063035694b6146100b95780630572b0cc146100e95780632def6620146101075780634641257d1461011157806355f575101461011b5780635f5152261461014e575b600080fd5b6100d360048036038101906100ce9190611242565b610242565b6040516100e091906115b9565b60405180910390f35b6100f16102fb565b6040516100fe91906115b9565b60405180910390f35b61010f6103a3565b005b610119610635565b005b6101356004803603810190610130919061119e565b6109f7565b60405161014594939291906114de565b60405180910390f35b6101686004803603810190610163919061119e565b610a47565b60405161017591906115b9565b60405180910390f35b610186610afb565b6040516101939190611523565b60405180910390f35b6101a4610b21565b6040516101b1919061159e565b60405180910390f35b6101c2610bec565b6040516101cf9190611463565b60405180910390f35b6101f260048036038101906101ed91906111f0565b610c10565b005b6101fc610e39565b60405161020991906115b9565b60405180910390f35b61022c600480360381019061022791906111f0565b610fc8565b60405161023991906115b9565b60405180910390f35b600080824261025191906116c6565b90506000610269603c836110ca90919063ffffffff16565b90506000610287662386f26fc10000886110e090919063ffffffff16565b905060006102a162080520836110ca90919063ffffffff16565b905060006102d2670de0b6b3a76400006102c4848b6110e090919063ffffffff16565b6110ca90919063ffffffff16565b905060006102e985836110e090919063ffffffff16565b90508096505050505050509392505050565b600080610306610e39565b9050600061039982600260003373ffffffffffffffffffffffffffffffffffffffff1673ffffffffffffffffffffffffffffffffffffffff16815260200190815260200160002060020154600260003373ffffffffffffffffffffffffffffffffffffffff1673ffffffffffffffffffffffffffffffffffffffff16815260200190815260200160002060010154610242565b9050809250505090565b3373ffffffffffffffffffffffffffffffffffffffff16600260003373ffffffffffffffffffffffffffffffffffffffff1673ffffffffffffffffffffffffffffffffffffffff16815260200190815260200160002060000160009054906101000a900473ffffffffffffffffffffffffffffffffffffffff1673ffffffffffffffffffffffffffffffffffffffff1614610473576040517f08c379a000000000000000000000000000000000000000000000000000000000815260040161046a9061155e565b60405180910390fd5b6000600260003373ffffffffffffffffffffffffffffffffffffffff1673ffffffffffffffffffffffffffffffffffffffff1681526020019081526020016000206002015414156104f9576040517f08c379a00000000000000000000000000000000000000000000000000000000081526004016104f09061157e565b60405180910390fd5b600160009054906101000a900473ffffffffffffffffffffffffffffffffffffffff1673ffffffffffffffffffffffffffffffffffffffff1663a9059cbb33600260003373ffffffffffffffffffffffffffffffffffffffff1673ffffffffffffffffffffffffffffffffffffffff168152602001908152602001600020600201546040518363ffffffff1660e01b81526004016105989291906114b5565b602060405180830381600087803b1580156105b257600080fd5b505af11580156105c6573d6000803e3d6000fd5b505050506040513d601f19601f820116820180604052508101906105ea91906111c7565b506000600260003373ffffffffffffffffffffffffffffffffffffffff1673ffffffffffffffffffffffffffffffffffffffff16815260200190815260200160002060020181905550565b600061063f610e39565b905060006106d282600260003373ffffffffffffffffffffffffffffffffffffffff1673ffffffffffffffffffffffffffffffffffffffff16815260200190815260200160002060020154600260003373ffffffffffffffffffffffffffffffffffffffff1673ffffffffffffffffffffffffffffffffffffffff16815260200190815260200160002060010154610242565b905080600260003373ffffffffffffffffffffffffffffffffffffffff1673ffffffffffffffffffffffffffffffffffffffff168152602001908152602001600020600301819055503373ffffffffffffffffffffffffffffffffffffffff16600260003373ffffffffffffffffffffffffffffffffffffffff1673ffffffffffffffffffffffffffffffffffffffff16815260200190815260200160002060000160009054906101000a900473ffffffffffffffffffffffffffffffffffffffff1673ffffffffffffffffffffffffffffffffffffffff16146107eb576040517f08c379a00000000000000000000000000000000000000000000000000000000081526004016107e29061155e565b60405180910390fd5b6000600260003373ffffffffffffffffffffffffffffffffffffffff1673ffffffffffffffffffffffffffffffffffffffff168152602001908152602001600020600301541415610871576040517f08c379a00000000000000000000000000000000000000000000000000000000081526004016108689061153e565b60405180910390fd5b600160009054906101000a900473ffffffffffffffffffffffffffffffffffffffff1673ffffffffffffffffffffffffffffffffffffffff1663a9059cbb33600260003373ffffffffffffffffffffffffffffffffffffffff1673ffffffffffffffffffffffffffffffffffffffff168152602001908152602001600020600301546040518363ffffffff1660e01b81526004016109109291906114b5565b602060405180830381600087803b15801561092a57600080fd5b505af115801561093e573d6000803e3d6000fd5b505050506040513d601f19601f8201168201806040525081019061096291906111c7565b506000600260003373ffffffffffffffffffffffffffffffffffffffff1673ffffffffffffffffffffffffffffffffffffffff168152602001908152602001600020600101819055506000600260003373ffffffffffffffffffffffffffffffffffffffff1673ffffffffffffffffffffffffffffffffffffffff168152602001908152602001600020600301819055505050565b60026020528060005260406000206000915090508060000160009054906101000a900473ffffffffffffffffffffffffffffffffffffffff16908060010154908060020154908060030154905084565b6000600160009054906101000a900473ffffffffffffffffffffffffffffffffffffffff1673ffffffffffffffffffffffffffffffffffffffff166370a08231836040518263ffffffff1660e01b8152600401610aa49190611463565b60206040518083038186803b158015610abc57600080fd5b505afa158015610ad0573d6000803e3d6000fd5b505050506040513d601f19601f82011682018060405250810190610af49190611219565b9050919050565b600160009054906101000a900473ffffffffffffffffffffffffffffffffffffffff1681565b610b2961110c565b600260003373ffffffffffffffffffffffffffffffffffffffff1673ffffffffffffffffffffffffffffffffffffffff1681526020019081526020016000206040518060800160405290816000820160009054906101000a900473ffffffffffffffffffffffffffffffffffffffff1673ffffffffffffffffffffffffffffffffffffffff1673ffffffffffffffffffffffffffffffffffffffff1681526020016001820154815260200160028201548152602001600382015481525050905090565b60008054906101000a900473ffffffffffffffffffffffffffffffffffffffff1681565b600160009054906101000a900473ffffffffffffffffffffffffffffffffffffffff1673ffffffffffffffffffffffffffffffffffffffff166323b872dd3330846040518463ffffffff1660e01b8152600401610c6f9392919061147e565b602060405180830381600087803b158015610c8957600080fd5b505af1158015610c9d573d6000803e3d6000fd5b505050506040513d601f19601f82011682018060405250810190610cc191906111c7565b5060405180608001604052803373ffffffffffffffffffffffffffffffffffffffff168152602001428152602001610d4483600260003373ffffffffffffffffffffffffffffffffffffffff1673ffffffffffffffffffffffffffffffffffffffff168152602001908152602001600020600201546110f690919063ffffffff16565b8152602001600260003373ffffffffffffffffffffffffffffffffffffffff1673ffffffffffffffffffffffffffffffffffffffff16815260200190815260200160002060030154815250600260003373ffffffffffffffffffffffffffffffffffffffff1673ffffffffffffffffffffffffffffffffffffffff16815260200190815260200160002060008201518160000160006101000a81548173ffffffffffffffffffffffffffffffffffffffff021916908373ffffffffffffffffffffffffffffffffffffffff16021790555060208201518160010155604082015181600201556060820151816003015590505050565b600080600160009054906101000a900473ffffffffffffffffffffffffffffffffffffffff1673ffffffffffffffffffffffffffffffffffffffff166370a08231306040518263ffffffff1660e01b8152600401610e979190611463565b60206040518083038186803b158015610eaf57600080fd5b505afa158015610ec3573d6000803e3d6000fd5b505050506040513d601f19601f82011682018060405250810190610ee79190611219565b90506000600160009054906101000a900473ffffffffffffffffffffffffffffffffffffffff1673ffffffffffffffffffffffffffffffffffffffff166318160ddd6040518163ffffffff1660e01b815260040160206040518083038186803b158015610f5357600080fd5b505afa158015610f67573d6000803e3d6000fd5b505050506040513d601f19601f82011682018060405250810190610f8b9190611219565b90506000610fb582610fa76064866110e090919063ffffffff16565b6110ca90919063ffffffff16565b9050610fc081610fc8565b935050505090565b600080600090506014831161100557601483610fe4919061163b565b6157e4610ff1919061166c565b615dc0610ffe91906116c6565b90506110c1565b60288311611046576014808461101b91906116c6565b611025919061163b565b6102ee611032919061166c565b6105dc61103f91906116c6565b90506110c0565b603283101561108857600a60288461105e91906116c6565b611068919061163b565b604b611074919061166c565b6102ee61108191906116c6565b90506110bf565b60328361109591906116c6565b600f6110a1919061166c565b6102ee6110ae91906116c6565b905060008110156110be57600090505b5b5b5b80915050919050565b600081836110d8919061163b565b905092915050565b600081836110ee919061166c565b905092915050565b6000818361110491906115e5565b905092915050565b6040518060800160405280600073ffffffffffffffffffffffffffffffffffffffff1681526020016000815260200160008152602001600081525090565b600081359050611159816117c4565b92915050565b60008151905061116e816117db565b92915050565b600081359050611183816117f2565b92915050565b600081519050611198816117f2565b92915050565b6000602082840312156111b057600080fd5b60006111be8482850161114a565b91505092915050565b6000602082840312156111d957600080fd5b60006111e78482850161115f565b91505092915050565b60006020828403121561120257600080fd5b600061121084828501611174565b91505092915050565b60006020828403121561122b57600080fd5b600061123984828501611189565b91505092915050565b60008060006060848603121561125757600080fd5b600061126586828701611174565b935050602061127686828701611174565b925050604061128786828701611174565b9150509250925092565b61129a816116fa565b82525050565b6112a9816116fa565b82525050565b6112b881611742565b82525050565b60006112cb6037836115d4565b91507f74686520757365722073686f756c64206861766520616e20616d6f756e74207260008301527f657761726420746f2068617665206120686172766573740000000000000000006020830152604082019050919050565b60006113316029836115d4565b91507f4f6e6c7920706f736974696f6e2063726561746f72206d6179206d6f6469667960008301527f20706f736974696f6e00000000000000000000000000000000000000000000006020830152604082019050919050565b60006113976030836115d4565b91507f74686520757365722073686f756c64206861766520616e20616d6f756e74207360008301527f74616b656420746f20756e7374616b65000000000000000000000000000000006020830152604082019050919050565b6080820160008201516114066000850182611291565b5060208201516114196020850182611445565b50604082015161142c6040850182611445565b50606082015161143f6060850182611445565b50505050565b61144e81611738565b82525050565b61145d81611738565b82525050565b600060208201905061147860008301846112a0565b92915050565b600060608201905061149360008301866112a0565b6114a060208301856112a0565b6114ad6040830184611454565b949350505050565b60006040820190506114ca60008301856112a0565b6114d76020830184611454565b9392505050565b60006080820190506114f360008301876112a0565b6115006020830186611454565b61150d6040830185611454565b61151a6060830184611454565b95945050505050565b600060208201905061153860008301846112af565b92915050565b60006020820190508181036000830152611557816112be565b9050919050565b6000602082019050818103600083015261157781611324565b9050919050565b600060208201905081810360008301526115978161138a565b9050919050565b60006080820190506115b360008301846113f0565b92915050565b60006020820190506115ce6000830184611454565b92915050565b600082825260208201905092915050565b60006115f082611738565b91506115fb83611738565b9250827fffffffffffffffffffffffffffffffffffffffffffffffffffffffffffffffff038211156116305761162f611766565b5b828201905092915050565b600061164682611738565b915061165183611738565b92508261166157611660611795565b5b828204905092915050565b600061167782611738565b915061168283611738565b9250817fffffffffffffffffffffffffffffffffffffffffffffffffffffffffffffffff04831182151516156116bb576116ba611766565b5b828202905092915050565b60006116d182611738565b91506116dc83611738565b9250828210156116ef576116ee611766565b5b828203905092915050565b600061170582611718565b9050919050565b60008115159050919050565b600073ffffffffffffffffffffffffffffffffffffffff82169050919050565b6000819050919050565b600061174d82611754565b9050919050565b600061175f82611718565b9050919050565b7f4e487b7100000000000000000000000000000000000000000000000000000000600052601160045260246000fd5b7f4e487b7100000000000000000000000000000000000000000000000000000000600052601260045260246000fd5b6117cd816116fa565b81146117d857600080fd5b50565b6117e48161170c565b81146117ef57600080fd5b50565b6117fb81611738565b811461180657600080fd5b5056fea26469706673582212207afb5ddcc9c0afc7cf32dcb4752944dd1a0b08641bdfab195262986b8aef81b864736f6c63430008000033",
  "linkReferences": {},
  "deployedLinkReferences": {}
}