{
  "_format": "hh-sol-artifact-1",
  "contractName": "Staking",
  "sourceName": "contracts/Staking.sol",
  "abi": [
    {
      "inputs": [
        {
          "internalType": "address",
          "name": "token",
          "type": "address"
        }
      ],
      "stateMutability": "nonpayable",
      "type": "constructor"
    },
    {
      "inputs": [
        {
          "internalType": "address",
          "name": "account",
          "type": "address"
        }
      ],
      "name": "checkBalance",
      "outputs": [
        {
          "internalType": "uint256",
          "name": "",
          "type": "uint256"
        }
      ],
      "stateMutability": "view",
      "type": "function"
    },
    {
      "inputs": [],
      "name": "getPositions",
      "outputs": [
        {
          "components": [
            {
              "internalType": "address",
              "name": "walletAddress",
              "type": "address"
            },
            {
              "internalType": "uint256",
              "name": "createdDate",
              "type": "uint256"
            },
            {
              "internalType": "uint256",
              "name": "amountStaked",
              "type": "uint256"
            },
            {
              "internalType": "uint256",
              "name": "rewardStaked",
              "type": "uint256"
            }
          ],
          "internalType": "struct Staking.Position",
          "name": "",
          "type": "tuple"
        }
      ],
      "stateMutability": "view",
      "type": "function"
    },
    {
      "inputs": [],
      "name": "getRewards",
      "outputs": [
        {
          "internalType": "uint256",
          "name": "",
          "type": "uint256"
        }
      ],
      "stateMutability": "view",
      "type": "function"
    },
    {
      "inputs": [],
      "name": "harvest",
      "outputs": [],
      "stateMutability": "nonpayable",
      "type": "function"
    },
    {
      "inputs": [],
      "name": "owner",
      "outputs": [
        {
          "internalType": "address",
          "name": "",
          "type": "address"
        }
      ],
      "stateMutability": "view",
      "type": "function"
    },
    {
      "inputs": [
        {
          "internalType": "uint256",
          "name": "aprValue",
          "type": "uint256"
        },
        {
          "internalType": "uint256",
          "name": "amountStaked",
          "type": "uint256"
        },
        {
          "internalType": "uint256",
          "name": "createdDate",
          "type": "uint256"
        }
      ],
      "name": "reward",
      "outputs": [
        {
          "internalType": "uint256",
          "name": "",
          "type": "uint256"
        }
      ],
      "stateMutability": "view",
      "type": "function"
    },
    {
      "inputs": [
        {
          "internalType": "uint256",
          "name": "amount",
          "type": "uint256"
        }
      ],
      "name": "stake",
      "outputs": [],
      "stateMutability": "nonpayable",
      "type": "function"
    },
    {
      "inputs": [],
      "name": "stakingToken",
      "outputs": [
        {
          "internalType": "contract IERC20",
          "name": "",
          "type": "address"
        }
      ],
      "stateMutability": "view",
      "type": "function"
    },
    {
      "inputs": [],
      "name": "unstake",
      "outputs": [],
      "stateMutability": "nonpayable",
      "type": "function"
    }
  ],
  "bytecode": "0x60806040526703782dace9d9000060025534801561001c57600080fd5b5060405161110c38038061110c833981810160405281019061003e91906100da565b336000806101000a81548173ffffffffffffffffffffffffffffffffffffffff021916908373ffffffffffffffffffffffffffffffffffffffff16021790555080600160006101000a81548173ffffffffffffffffffffffffffffffffffffffff021916908373ffffffffffffffffffffffffffffffffffffffff1602179055505061014c565b6000815190506100d481610135565b92915050565b6000602082840312156100ec57600080fd5b60006100fa848285016100c5565b91505092915050565b600061010e82610115565b9050919050565b600073ffffffffffffffffffffffffffffffffffffffff82169050919050565b61013e81610103565b811461014957600080fd5b50565b610fb18061015b6000396000f3fe608060405234801561001057600080fd5b50600436106100935760003560e01c80635f515226116100665780635f515226146100fa57806372f702f31461012a57806380275860146101485780638da5cb5b14610166578063a694fc3a1461018457610093565b8063035694b6146100985780630572b0cc146100c85780632def6620146100e65780634641257d146100f0575b600080fd5b6100b260048036038101906100ad91906109f9565b6101a0565b6040516100bf9190610d2b565b60405180910390f35b6100d0610235565b6040516100dd9190610d2b565b60405180910390f35b6100ee61025e565b005b6100f86103fc565b005b610114600480360381019061010f9190610955565b6105cd565b6040516101219190610d2b565b60405180910390f35b610132610681565b60405161013f9190610c95565b60405180910390f35b6101506106a7565b60405161015d9190610d10565b60405180910390f35b61016e610735565b60405161017b9190610c1a565b60405180910390f35b61019e600480360381019061019991906109a7565b610759565b005b6000806064856101b09190610dad565b90506000603c84426101c29190610e38565b6101cc9190610dad565b9050600081603c601861016d866101e39190610dad565b6101ed9190610dad565b6101f79190610dad565b6102019190610dde565b9050600068056bc75e2d63100000828861021b9190610dde565b6102259190610dad565b9050809450505050509392505050565b60008060025490506000610254826003600201546003600101546101a0565b9050809250505090565b3373ffffffffffffffffffffffffffffffffffffffff16600360000160009054906101000a900473ffffffffffffffffffffffffffffffffffffffff1673ffffffffffffffffffffffffffffffffffffffff16146102f1576040517f08c379a00000000000000000000000000000000000000000000000000000000081526004016102e890610cd0565b60405180910390fd5b6000600360020154141561033a576040517f08c379a000000000000000000000000000000000000000000000000000000000815260040161033190610cf0565b60405180910390fd5b600160009054906101000a900473ffffffffffffffffffffffffffffffffffffffff1673ffffffffffffffffffffffffffffffffffffffff1663a9059cbb336003600201546040518363ffffffff1660e01b815260040161039c929190610c6c565b602060405180830381600087803b1580156103b657600080fd5b505af11580156103ca573d6000803e3d6000fd5b505050506040513d601f19601f820116820180604052508101906103ee919061097e565b506000600360020181905550565b60006002549050600061041a826003600201546003600101546101a0565b90508060038001819055503373ffffffffffffffffffffffffffffffffffffffff16600360000160009054906101000a900473ffffffffffffffffffffffffffffffffffffffff1673ffffffffffffffffffffffffffffffffffffffff16146104b8576040517f08c379a00000000000000000000000000000000000000000000000000000000081526004016104af90610cd0565b60405180910390fd5b600060038001541415610500576040517f08c379a00000000000000000000000000000000000000000000000000000000081526004016104f790610cb0565b60405180910390fd5b600160009054906101000a900473ffffffffffffffffffffffffffffffffffffffff1673ffffffffffffffffffffffffffffffffffffffff1663a9059cbb3360038001546040518363ffffffff1660e01b8152600401610561929190610c6c565b602060405180830381600087803b15801561057b57600080fd5b505af115801561058f573d6000803e3d6000fd5b505050506040513d601f19601f820116820180604052508101906105b3919061097e565b506000600360010181905550600060038001819055505050565b6000600160009054906101000a900473ffffffffffffffffffffffffffffffffffffffff1673ffffffffffffffffffffffffffffffffffffffff166370a08231836040518263ffffffff1660e01b815260040161062a9190610c1a565b60206040518083038186803b15801561064257600080fd5b505afa158015610656573d6000803e3d6000fd5b505050506040513d601f19601f8201168201806040525081019061067a91906109d0565b9050919050565b600160009054906101000a900473ffffffffffffffffffffffffffffffffffffffff1681565b6106af6108c3565b60036040518060800160405290816000820160009054906101000a900473ffffffffffffffffffffffffffffffffffffffff1673ffffffffffffffffffffffffffffffffffffffff1673ffffffffffffffffffffffffffffffffffffffff1681526020016001820154815260200160028201548152602001600382015481525050905090565b60008054906101000a900473ffffffffffffffffffffffffffffffffffffffff1681565b600160009054906101000a900473ffffffffffffffffffffffffffffffffffffffff1673ffffffffffffffffffffffffffffffffffffffff166323b872dd3330846040518463ffffffff1660e01b81526004016107b893929190610c35565b602060405180830381600087803b1580156107d257600080fd5b505af11580156107e6573d6000803e3d6000fd5b505050506040513d601f19601f8201168201806040525081019061080a919061097e565b5060405180608001604052803373ffffffffffffffffffffffffffffffffffffffff168152602001428152602001826003600201546108499190610d57565b81526020016003800154815250600360008201518160000160006101000a81548173ffffffffffffffffffffffffffffffffffffffff021916908373ffffffffffffffffffffffffffffffffffffffff16021790555060208201518160010155604082015181600201556060820151816003015590505050565b6040518060800160405280600073ffffffffffffffffffffffffffffffffffffffff1681526020016000815260200160008152602001600081525090565b60008135905061091081610f36565b92915050565b60008151905061092581610f4d565b92915050565b60008135905061093a81610f64565b92915050565b60008151905061094f81610f64565b92915050565b60006020828403121561096757600080fd5b600061097584828501610901565b91505092915050565b60006020828403121561099057600080fd5b600061099e84828501610916565b91505092915050565b6000602082840312156109b957600080fd5b60006109c78482850161092b565b91505092915050565b6000602082840312156109e257600080fd5b60006109f084828501610940565b91505092915050565b600080600060608486031215610a0e57600080fd5b6000610a1c8682870161092b565b9350506020610a2d8682870161092b565b9250506040610a3e8682870161092b565b9150509250925092565b610a5181610e6c565b82525050565b610a6081610e6c565b82525050565b610a6f81610eb4565b82525050565b6000610a82603783610d46565b91507f74686520757365722073686f756c64206861766520616e20616d6f756e74207260008301527f657761726420746f2068617665206120686172766573740000000000000000006020830152604082019050919050565b6000610ae8602983610d46565b91507f4f6e6c7920706f736974696f6e2063726561746f72206d6179206d6f6469667960008301527f20706f736974696f6e00000000000000000000000000000000000000000000006020830152604082019050919050565b6000610b4e603083610d46565b91507f74686520757365722073686f756c64206861766520616e20616d6f756e74207360008301527f74616b656420746f20756e7374616b65000000000000000000000000000000006020830152604082019050919050565b608082016000820151610bbd6000850182610a48565b506020820151610bd06020850182610bfc565b506040820151610be36040850182610bfc565b506060820151610bf66060850182610bfc565b50505050565b610c0581610eaa565b82525050565b610c1481610eaa565b82525050565b6000602082019050610c2f6000830184610a57565b92915050565b6000606082019050610c4a6000830186610a57565b610c576020830185610a57565b610c646040830184610c0b565b949350505050565b6000604082019050610c816000830185610a57565b610c8e6020830184610c0b565b9392505050565b6000602082019050610caa6000830184610a66565b92915050565b60006020820190508181036000830152610cc981610a75565b9050919050565b60006020820190508181036000830152610ce981610adb565b9050919050565b60006020820190508181036000830152610d0981610b41565b9050919050565b6000608082019050610d256000830184610ba7565b92915050565b6000602082019050610d406000830184610c0b565b92915050565b600082825260208201905092915050565b6000610d6282610eaa565b9150610d6d83610eaa565b9250827fffffffffffffffffffffffffffffffffffffffffffffffffffffffffffffffff03821115610da257610da1610ed8565b5b828201905092915050565b6000610db882610eaa565b9150610dc383610eaa565b925082610dd357610dd2610f07565b5b828204905092915050565b6000610de982610eaa565b9150610df483610eaa565b9250817fffffffffffffffffffffffffffffffffffffffffffffffffffffffffffffffff0483118215151615610e2d57610e2c610ed8565b5b828202905092915050565b6000610e4382610eaa565b9150610e4e83610eaa565b925082821015610e6157610e60610ed8565b5b828203905092915050565b6000610e7782610e8a565b9050919050565b60008115159050919050565b600073ffffffffffffffffffffffffffffffffffffffff82169050919050565b6000819050919050565b6000610ebf82610ec6565b9050919050565b6000610ed182610e8a565b9050919050565b7f4e487b7100000000000000000000000000000000000000000000000000000000600052601160045260246000fd5b7f4e487b7100000000000000000000000000000000000000000000000000000000600052601260045260246000fd5b610f3f81610e6c565b8114610f4a57600080fd5b50565b610f5681610e7e565b8114610f6157600080fd5b50565b610f6d81610eaa565b8114610f7857600080fd5b5056fea2646970667358221220117d7e742fabc27e1789a4000c43ec9c0403701387ea43b6de5dfc9dd98206c764736f6c63430008000033",
  "linkReferences": {},
  "deployedLinkReferences": {}
}