{
  "_format": "hh-sol-artifact-1",
  "contractName": "Staking",
  "sourceName": "contracts/Staking.sol",
  "abi": [
    {
      "inputs": [
        {
          "internalType": "address",
          "name": "token",
          "type": "address"
        }
      ],
      "stateMutability": "nonpayable",
      "type": "constructor"
    },
    {
      "inputs": [],
      "name": "adminWallet",
      "outputs": [
        {
          "internalType": "address",
          "name": "",
          "type": "address"
        }
      ],
      "stateMutability": "view",
      "type": "function"
    },
    {
      "inputs": [
        {
          "internalType": "uint256",
          "name": "totalStakedPercentage",
          "type": "uint256"
        }
      ],
      "name": "calculateAPR",
      "outputs": [
        {
          "internalType": "uint256",
          "name": "",
          "type": "uint256"
        }
      ],
      "stateMutability": "pure",
      "type": "function"
    },
    {
      "inputs": [
        {
          "internalType": "address",
          "name": "account",
          "type": "address"
        }
      ],
      "name": "checkBalance",
      "outputs": [
        {
          "internalType": "uint256",
          "name": "",
          "type": "uint256"
        }
      ],
      "stateMutability": "view",
      "type": "function"
    },
    {
      "inputs": [],
      "name": "getAPR",
      "outputs": [
        {
          "internalType": "uint256",
          "name": "",
          "type": "uint256"
        }
      ],
      "stateMutability": "view",
      "type": "function"
    },
    {
      "inputs": [],
      "name": "getPositions",
      "outputs": [
        {
          "components": [
            {
              "internalType": "address",
              "name": "walletAddress",
              "type": "address"
            },
            {
              "internalType": "uint256",
              "name": "createdDate",
              "type": "uint256"
            },
            {
              "internalType": "uint256",
              "name": "amountStaked",
              "type": "uint256"
            },
            {
              "internalType": "uint256",
              "name": "rewardStaked",
              "type": "uint256"
            },
            {
              "internalType": "uint256",
              "name": "savedReward",
              "type": "uint256"
            }
          ],
          "internalType": "struct Staking.Position",
          "name": "",
          "type": "tuple"
        }
      ],
      "stateMutability": "view",
      "type": "function"
    },
    {
      "inputs": [],
      "name": "getRewards",
      "outputs": [
        {
          "internalType": "uint256",
          "name": "",
          "type": "uint256"
        }
      ],
      "stateMutability": "view",
      "type": "function"
    },
    {
      "inputs": [],
      "name": "getStakingFee",
      "outputs": [
        {
          "internalType": "uint256",
          "name": "",
          "type": "uint256"
        }
      ],
      "stateMutability": "view",
      "type": "function"
    },
    {
      "inputs": [],
      "name": "getTotalStakedAmount",
      "outputs": [
        {
          "internalType": "uint256",
          "name": "",
          "type": "uint256"
        }
      ],
      "stateMutability": "view",
      "type": "function"
    },
    {
      "inputs": [],
      "name": "harvest",
      "outputs": [],
      "stateMutability": "nonpayable",
      "type": "function"
    },
    {
      "inputs": [
        {
          "internalType": "address",
          "name": "",
          "type": "address"
        }
      ],
      "name": "positions",
      "outputs": [
        {
          "internalType": "address",
          "name": "walletAddress",
          "type": "address"
        },
        {
          "internalType": "uint256",
          "name": "createdDate",
          "type": "uint256"
        },
        {
          "internalType": "uint256",
          "name": "amountStaked",
          "type": "uint256"
        },
        {
          "internalType": "uint256",
          "name": "rewardStaked",
          "type": "uint256"
        },
        {
          "internalType": "uint256",
          "name": "savedReward",
          "type": "uint256"
        }
      ],
      "stateMutability": "view",
      "type": "function"
    },
    {
      "inputs": [
        {
          "internalType": "uint256",
          "name": "apr",
          "type": "uint256"
        },
        {
          "internalType": "uint256",
          "name": "amountStaked",
          "type": "uint256"
        },
        {
          "internalType": "uint256",
          "name": "startDate",
          "type": "uint256"
        }
      ],
      "name": "reward",
      "outputs": [
        {
          "internalType": "uint256",
          "name": "",
          "type": "uint256"
        }
      ],
      "stateMutability": "view",
      "type": "function"
    },
    {
      "inputs": [
        {
          "internalType": "uint256",
          "name": "fee",
          "type": "uint256"
        }
      ],
      "name": "setStakingFee",
      "outputs": [
        {
          "internalType": "uint256",
          "name": "",
          "type": "uint256"
        }
      ],
      "stateMutability": "nonpayable",
      "type": "function"
    },
    {
      "inputs": [
        {
          "internalType": "uint256",
          "name": "amount",
          "type": "uint256"
        }
      ],
      "name": "stake",
      "outputs": [],
      "stateMutability": "nonpayable",
      "type": "function"
    },
    {
      "inputs": [],
      "name": "stakedAmount",
      "outputs": [
        {
          "internalType": "uint256",
          "name": "amountStaked",
          "type": "uint256"
        }
      ],
      "stateMutability": "view",
      "type": "function"
    },
    {
      "inputs": [],
      "name": "stakingFee",
      "outputs": [
        {
          "internalType": "uint256",
          "name": "",
          "type": "uint256"
        }
      ],
      "stateMutability": "view",
      "type": "function"
    },
    {
      "inputs": [],
      "name": "stakingToken",
      "outputs": [
        {
          "internalType": "contract IERC20",
          "name": "",
          "type": "address"
        }
      ],
      "stateMutability": "view",
      "type": "function"
    },
    {
      "inputs": [],
      "name": "unstake",
      "outputs": [],
      "stateMutability": "nonpayable",
      "type": "function"
    }
  ],
  "bytecode": "0x608060405260006002553480156200001657600080fd5b50604051620023ab380380620023ab83398181016040528101906200003c9190620000db565b336000806101000a81548173ffffffffffffffffffffffffffffffffffffffff021916908373ffffffffffffffffffffffffffffffffffffffff16021790555080600160006101000a81548173ffffffffffffffffffffffffffffffffffffffff021916908373ffffffffffffffffffffffffffffffffffffffff1602179055505062000155565b600081519050620000d5816200013b565b92915050565b600060208284031215620000ee57600080fd5b6000620000fe84828501620000c4565b91505092915050565b600062000114826200011b565b9050919050565b600073ffffffffffffffffffffffffffffffffffffffff82169050919050565b620001468162000107565b81146200015257600080fd5b50565b61224680620001656000396000f3fe608060405234801561001057600080fd5b506004361061010b5760003560e01c80634b270a46116100a25780638027586011610071578063802758601461029c578063a694fc3a146102ba578063c89d5b8b146102d6578063d1a02a86146102f4578063eff98843146103245761010b565b80634b270a46146101fc57806355f575101461021a5780635f5152261461024e57806372f702f31461027e5761010b565b8063373d6132116100de578063373d61321461018657806338adb6f0146101a4578063410dbf7e146101c25780634641257d146101f25761010b565b8063035694b6146101105780630572b0cc146101405780632def66201461015e57806336b19cd714610168575b600080fd5b61012a60048036038101906101259190611ba2565b610342565b6040516101379190611fc0565b60405180910390f35b610148610490565b6040516101559190611fc0565b60405180910390f35b61016661058b565b005b610170610b84565b60405161017d9190611e3c565b60405180910390f35b61018e610ba8565b60405161019b9190611fc0565b60405180910390f35b6101ac610bb4565b6040516101b99190611fc0565b60405180910390f35b6101dc60048036038101906101d79190611b50565b610bc1565b6040516101e99190611fc0565b60405180910390f35b6101fa610c5e565b005b6102046110b4565b6040516102119190611fc0565b60405180910390f35b610234600480360381019061022f9190611afe565b6110be565b604051610245959493929190611eb7565b60405180910390f35b61026860048036038101906102639190611afe565b611114565b6040516102759190611fc0565b60405180910390f35b6102866111c8565b6040516102939190611f0a565b60405180910390f35b6102a46111ee565b6040516102b19190611fa5565b60405180910390f35b6102d460048036038101906102cf9190611b50565b6112c3565b005b6102de611844565b6040516102eb9190611fc0565b60405180910390f35b61030e60048036038101906103099190611b50565b61192e565b60405161031b9190611fc0565b60405180910390f35b61032c611a1d565b6040516103399190611fc0565b60405180910390f35b600080600360003373ffffffffffffffffffffffffffffffffffffffff1673ffffffffffffffffffffffffffffffffffffffff1681526020019081526020016000206002015414610443576000824261039b91906120cd565b905060006103b3603c83611a2390919063ffffffff16565b905060006103d1662386f26fc1000088611a3990919063ffffffff16565b905060006103eb6208052083611a2390919063ffffffff16565b9050600061041c670de0b6b3a764000061040e848b611a3990919063ffffffff16565b611a2390919063ffffffff16565b905060006104338583611a3990919063ffffffff16565b9050809650505050505050610489565b600360003373ffffffffffffffffffffffffffffffffffffffff1673ffffffffffffffffffffffffffffffffffffffff1681526020019081526020016000206003015490505b9392505050565b60008061049b611844565b9050600061052e82600360003373ffffffffffffffffffffffffffffffffffffffff1673ffffffffffffffffffffffffffffffffffffffff16815260200190815260200160002060020154600360003373ffffffffffffffffffffffffffffffffffffffff1673ffffffffffffffffffffffffffffffffffffffff16815260200190815260200160002060010154610342565b90506000600360003373ffffffffffffffffffffffffffffffffffffffff1673ffffffffffffffffffffffffffffffffffffffff16815260200190815260200160002060040154905080826105839190611fec565b935050505090565b3373ffffffffffffffffffffffffffffffffffffffff16600360003373ffffffffffffffffffffffffffffffffffffffff1673ffffffffffffffffffffffffffffffffffffffff16815260200190815260200160002060000160009054906101000a900473ffffffffffffffffffffffffffffffffffffffff1673ffffffffffffffffffffffffffffffffffffffff161461065b576040517f08c379a000000000000000000000000000000000000000000000000000000000815260040161065290611f25565b60405180910390fd5b6000600360003373ffffffffffffffffffffffffffffffffffffffff1673ffffffffffffffffffffffffffffffffffffffff1681526020019081526020016000206002015414156106e1576040517f08c379a00000000000000000000000000000000000000000000000000000000081526004016106d890611f85565b60405180910390fd5b60006106eb611844565b9050600061077e82600360003373ffffffffffffffffffffffffffffffffffffffff1673ffffffffffffffffffffffffffffffffffffffff16815260200190815260200160002060020154600360003373ffffffffffffffffffffffffffffffffffffffff1673ffffffffffffffffffffffffffffffffffffffff16815260200190815260200160002060010154610342565b90506000600360003373ffffffffffffffffffffffffffffffffffffffff1673ffffffffffffffffffffffffffffffffffffffff1681526020019081526020016000206004015482600360003373ffffffffffffffffffffffffffffffffffffffff1673ffffffffffffffffffffffffffffffffffffffff168152602001908152602001600020600201546108139190611fec565b61081d9190611fec565b9050600061084a61271061083c60025485611a3990919063ffffffff16565b611a2390919063ffffffff16565b905060006108618284611a4f90919063ffffffff16565b9050600160009054906101000a900473ffffffffffffffffffffffffffffffffffffffff1673ffffffffffffffffffffffffffffffffffffffff1663a9059cbb33836040518363ffffffff1660e01b81526004016108c0929190611e8e565b602060405180830381600087803b1580156108da57600080fd5b505af11580156108ee573d6000803e3d6000fd5b505050506040513d601f19601f820116820180604052508101906109129190611b27565b506040518060200160405280600360003373ffffffffffffffffffffffffffffffffffffffff1673ffffffffffffffffffffffffffffffffffffffff1681526020019081526020016000206002015460046000015461097191906120cd565b8152506004600082015181600001559050506000600360003373ffffffffffffffffffffffffffffffffffffffff1673ffffffffffffffffffffffffffffffffffffffff168152602001908152602001600020600101819055506000600360003373ffffffffffffffffffffffffffffffffffffffff1673ffffffffffffffffffffffffffffffffffffffff168152602001908152602001600020600301819055506000600360003373ffffffffffffffffffffffffffffffffffffffff1673ffffffffffffffffffffffffffffffffffffffff168152602001908152602001600020600201819055506000600360003373ffffffffffffffffffffffffffffffffffffffff1673ffffffffffffffffffffffffffffffffffffffff168152602001908152602001600020600401819055506000821115610b7d57600160009054906101000a900473ffffffffffffffffffffffffffffffffffffffff1673ffffffffffffffffffffffffffffffffffffffff1663a9059cbb60008054906101000a900473ffffffffffffffffffffffffffffffffffffffff16846040518363ffffffff1660e01b8152600401610b29929190611e8e565b602060405180830381600087803b158015610b4357600080fd5b505af1158015610b57573d6000803e3d6000fd5b505050506040513d601f19601f82011682018060405250810190610b7b9190611b27565b505b5050505050565b60008054906101000a900473ffffffffffffffffffffffffffffffffffffffff1681565b60048060000154905081565b6000600460000154905090565b60003373ffffffffffffffffffffffffffffffffffffffff1660008054906101000a900473ffffffffffffffffffffffffffffffffffffffff1673ffffffffffffffffffffffffffffffffffffffff1614610c51576040517f08c379a0000000000000000000000000000000000000000000000000000000008152600401610c4890611f65565b60405180910390fd5b8160028190559050919050565b3373ffffffffffffffffffffffffffffffffffffffff16600360003373ffffffffffffffffffffffffffffffffffffffff1673ffffffffffffffffffffffffffffffffffffffff16815260200190815260200160002060000160009054906101000a900473ffffffffffffffffffffffffffffffffffffffff1673ffffffffffffffffffffffffffffffffffffffff1614610d2e576040517f08c379a0000000000000000000000000000000000000000000000000000000008152600401610d2590611f25565b60405180910390fd5b6000600360003373ffffffffffffffffffffffffffffffffffffffff1673ffffffffffffffffffffffffffffffffffffffff168152602001908152602001600020600201541415610db4576040517f08c379a0000000000000000000000000000000000000000000000000000000008152600401610dab90611f45565b60405180910390fd5b6000610dbe611844565b90506000610e5182600360003373ffffffffffffffffffffffffffffffffffffffff1673ffffffffffffffffffffffffffffffffffffffff16815260200190815260200160002060020154600360003373ffffffffffffffffffffffffffffffffffffffff1673ffffffffffffffffffffffffffffffffffffffff16815260200190815260200160002060010154610342565b905080600360003373ffffffffffffffffffffffffffffffffffffffff1673ffffffffffffffffffffffffffffffffffffffff16815260200190815260200160002060030181905550600160009054906101000a900473ffffffffffffffffffffffffffffffffffffffff1673ffffffffffffffffffffffffffffffffffffffff1663a9059cbb33600360003373ffffffffffffffffffffffffffffffffffffffff1673ffffffffffffffffffffffffffffffffffffffff16815260200190815260200160002060040154600360003373ffffffffffffffffffffffffffffffffffffffff1673ffffffffffffffffffffffffffffffffffffffff16815260200190815260200160002060030154610f699190611fec565b6040518363ffffffff1660e01b8152600401610f86929190611e8e565b602060405180830381600087803b158015610fa057600080fd5b505af1158015610fb4573d6000803e3d6000fd5b505050506040513d601f19601f82011682018060405250810190610fd89190611b27565b5042600360003373ffffffffffffffffffffffffffffffffffffffff1673ffffffffffffffffffffffffffffffffffffffff168152602001908152602001600020600101819055506000600360003373ffffffffffffffffffffffffffffffffffffffff1673ffffffffffffffffffffffffffffffffffffffff168152602001908152602001600020600301819055506000600360003373ffffffffffffffffffffffffffffffffffffffff1673ffffffffffffffffffffffffffffffffffffffff168152602001908152602001600020600401819055505050565b6000600254905090565b60036020528060005260406000206000915090508060000160009054906101000a900473ffffffffffffffffffffffffffffffffffffffff16908060010154908060020154908060030154908060040154905085565b6000600160009054906101000a900473ffffffffffffffffffffffffffffffffffffffff1673ffffffffffffffffffffffffffffffffffffffff166370a08231836040518263ffffffff1660e01b81526004016111719190611e3c565b60206040518083038186803b15801561118957600080fd5b505afa15801561119d573d6000803e3d6000fd5b505050506040513d601f19601f820116820180604052508101906111c19190611b79565b9050919050565b600160009054906101000a900473ffffffffffffffffffffffffffffffffffffffff1681565b6111f6611a65565b600360003373ffffffffffffffffffffffffffffffffffffffff1673ffffffffffffffffffffffffffffffffffffffff1681526020019081526020016000206040518060a00160405290816000820160009054906101000a900473ffffffffffffffffffffffffffffffffffffffff1673ffffffffffffffffffffffffffffffffffffffff1673ffffffffffffffffffffffffffffffffffffffff168152602001600182015481526020016002820154815260200160038201548152602001600482015481525050905090565b600160009054906101000a900473ffffffffffffffffffffffffffffffffffffffff1673ffffffffffffffffffffffffffffffffffffffff166323b872dd3330846040518463ffffffff1660e01b815260040161132293929190611e57565b602060405180830381600087803b15801561133c57600080fd5b505af1158015611350573d6000803e3d6000fd5b505050506040513d601f19601f820116820180604052508101906113749190611b27565b50600061137f611844565b9050600061141282600360003373ffffffffffffffffffffffffffffffffffffffff1673ffffffffffffffffffffffffffffffffffffffff16815260200190815260200160002060020154600360003373ffffffffffffffffffffffffffffffffffffffff1673ffffffffffffffffffffffffffffffffffffffff16815260200190815260200160002060010154610342565b905080600360003373ffffffffffffffffffffffffffffffffffffffff1673ffffffffffffffffffffffffffffffffffffffff168152602001908152602001600020600301819055506000600360003373ffffffffffffffffffffffffffffffffffffffff1673ffffffffffffffffffffffffffffffffffffffff1681526020019081526020016000206003015414611647576040518060a001604052803373ffffffffffffffffffffffffffffffffffffffff16815260200142815260200184600360003373ffffffffffffffffffffffffffffffffffffffff1673ffffffffffffffffffffffffffffffffffffffff16815260200190815260200160002060020160008282546115249190611fec565b92505081905581526020016000815260200182600360003373ffffffffffffffffffffffffffffffffffffffff1673ffffffffffffffffffffffffffffffffffffffff16815260200190815260200160002060040160008282546115889190611fec565b925050819055815250600360003373ffffffffffffffffffffffffffffffffffffffff1673ffffffffffffffffffffffffffffffffffffffff16815260200190815260200160002060008201518160000160006101000a81548173ffffffffffffffffffffffffffffffffffffffff021916908373ffffffffffffffffffffffffffffffffffffffff16021790555060208201518160010155604082015181600201556060820151816003015560808201518160040155905050611811565b6040518060a001604052803373ffffffffffffffffffffffffffffffffffffffff16815260200142815260200184600360003373ffffffffffffffffffffffffffffffffffffffff1673ffffffffffffffffffffffffffffffffffffffff16815260200190815260200160002060020160008282546116c69190611fec565b9250508190558152602001600360003373ffffffffffffffffffffffffffffffffffffffff1673ffffffffffffffffffffffffffffffffffffffff168152602001908152602001600020600301548152602001600360003373ffffffffffffffffffffffffffffffffffffffff1673ffffffffffffffffffffffffffffffffffffffff16815260200190815260200160002060040154815250600360003373ffffffffffffffffffffffffffffffffffffffff1673ffffffffffffffffffffffffffffffffffffffff16815260200190815260200160002060008201518160000160006101000a81548173ffffffffffffffffffffffffffffffffffffffff021916908373ffffffffffffffffffffffffffffffffffffffff160217905550602082015181600101556040820151816002015560608201518160030155608082015181600401559050505b60405180602001604052808460046000015461182d9190611fec565b815250600460008201518160000155905050505050565b60008060046000015490506000600160009054906101000a900473ffffffffffffffffffffffffffffffffffffffff1673ffffffffffffffffffffffffffffffffffffffff166318160ddd6040518163ffffffff1660e01b815260040160206040518083038186803b1580156118b957600080fd5b505afa1580156118cd573d6000803e3d6000fd5b505050506040513d601f19601f820116820180604052508101906118f19190611b79565b9050600061191b8261190d606486611a3990919063ffffffff16565b611a2390919063ffffffff16565b90506119268161192e565b935050505090565b600080600090506014831161196b5760148361095161194d9190612073565b6119579190612042565b61096061196491906120cd565b9050611a14565b602883116119aa576014808461198191906120cd565b600861198d9190612073565b6119979190612042565b600f6119a391906120cd565b9050611a13565b60328310156119eb57600a6028846119c291906120cd565b60076119ce9190612073565b6119d89190612042565b60076119e491906120cd565b9050611a12565b603280846119f991906120cd565b6007611a059190612073565b611a0f9190612042565b90505b5b5b80915050919050565b60025481565b60008183611a319190612042565b905092915050565b60008183611a479190612073565b905092915050565b60008183611a5d91906120cd565b905092915050565b6040518060a00160405280600073ffffffffffffffffffffffffffffffffffffffff168152602001600081526020016000815260200160008152602001600081525090565b600081359050611ab9816121cb565b92915050565b600081519050611ace816121e2565b92915050565b600081359050611ae3816121f9565b92915050565b600081519050611af8816121f9565b92915050565b600060208284031215611b1057600080fd5b6000611b1e84828501611aaa565b91505092915050565b600060208284031215611b3957600080fd5b6000611b4784828501611abf565b91505092915050565b600060208284031215611b6257600080fd5b6000611b7084828501611ad4565b91505092915050565b600060208284031215611b8b57600080fd5b6000611b9984828501611ae9565b91505092915050565b600080600060608486031215611bb757600080fd5b6000611bc586828701611ad4565b9350506020611bd686828701611ad4565b9250506040611be786828701611ad4565b9150509250925092565b611bfa81612101565b82525050565b611c0981612101565b82525050565b611c1881612149565b82525050565b6000611c2b602983611fdb565b91507f4f6e6c79206f776e6572206d6179206d6f6469667920616e207374616b696e6760008301527f20706f736974696f6e00000000000000000000000000000000000000000000006020830152604082019050919050565b6000611c91603783611fdb565b91507f74686520757365722073686f756c64206861766520616e20616d6f756e74207260008301527f657761726420746f2068617665206120686172766573740000000000000000006020830152604082019050919050565b6000611cf7602183611fdb565b91507f4f6e6c792061646d696e206d6179206d6f64696679206120466565207461786560008301527f73000000000000000000000000000000000000000000000000000000000000006020830152604082019050919050565b6000611d5d603083611fdb565b91507f74686520757365722073686f756c64206861766520616e20616d6f756e74207360008301527f74616b656420746f20756e7374616b65000000000000000000000000000000006020830152604082019050919050565b60a082016000820151611dcc6000850182611bf1565b506020820151611ddf6020850182611e1e565b506040820151611df26040850182611e1e565b506060820151611e056060850182611e1e565b506080820151611e186080850182611e1e565b50505050565b611e278161213f565b82525050565b611e368161213f565b82525050565b6000602082019050611e516000830184611c00565b92915050565b6000606082019050611e6c6000830186611c00565b611e796020830185611c00565b611e866040830184611e2d565b949350505050565b6000604082019050611ea36000830185611c00565b611eb06020830184611e2d565b9392505050565b600060a082019050611ecc6000830188611c00565b611ed96020830187611e2d565b611ee66040830186611e2d565b611ef36060830185611e2d565b611f006080830184611e2d565b9695505050505050565b6000602082019050611f1f6000830184611c0f565b92915050565b60006020820190508181036000830152611f3e81611c1e565b9050919050565b60006020820190508181036000830152611f5e81611c84565b9050919050565b60006020820190508181036000830152611f7e81611cea565b9050919050565b60006020820190508181036000830152611f9e81611d50565b9050919050565b600060a082019050611fba6000830184611db6565b92915050565b6000602082019050611fd56000830184611e2d565b92915050565b600082825260208201905092915050565b6000611ff78261213f565b91506120028361213f565b9250827fffffffffffffffffffffffffffffffffffffffffffffffffffffffffffffffff038211156120375761203661216d565b5b828201905092915050565b600061204d8261213f565b91506120588361213f565b9250826120685761206761219c565b5b828204905092915050565b600061207e8261213f565b91506120898361213f565b9250817fffffffffffffffffffffffffffffffffffffffffffffffffffffffffffffffff04831182151516156120c2576120c161216d565b5b828202905092915050565b60006120d88261213f565b91506120e38361213f565b9250828210156120f6576120f561216d565b5b828203905092915050565b600061210c8261211f565b9050919050565b60008115159050919050565b600073ffffffffffffffffffffffffffffffffffffffff82169050919050565b6000819050919050565b60006121548261215b565b9050919050565b60006121668261211f565b9050919050565b7f4e487b7100000000000000000000000000000000000000000000000000000000600052601160045260246000fd5b7f4e487b7100000000000000000000000000000000000000000000000000000000600052601260045260246000fd5b6121d481612101565b81146121df57600080fd5b50565b6121eb81612113565b81146121f657600080fd5b50565b6122028161213f565b811461220d57600080fd5b5056fea2646970667358221220e8b2305aa4994e208a3578b117bf9d4c9741fbbb886926efcb65e05c219f13f764736f6c63430008000033",
  "linkReferences": {},
  "deployedLinkReferences": {}
}