{
  "_format": "hh-sol-artifact-1",
  "contractName": "Staking",
  "sourceName": "contracts/Staking.sol",
  "abi": [
    {
      "inputs": [
        {
          "internalType": "address",
          "name": "token",
          "type": "address"
        }
      ],
      "stateMutability": "nonpayable",
      "type": "constructor"
    },
    {
      "inputs": [
        {
          "internalType": "uint256",
          "name": "totalStakedPercentage",
          "type": "uint256"
        }
      ],
      "name": "calculateAPR",
      "outputs": [
        {
          "internalType": "uint256",
          "name": "",
          "type": "uint256"
        }
      ],
      "stateMutability": "pure",
      "type": "function"
    },
    {
      "inputs": [
        {
          "internalType": "address",
          "name": "account",
          "type": "address"
        }
      ],
      "name": "checkBalance",
      "outputs": [
        {
          "internalType": "uint256",
          "name": "",
          "type": "uint256"
        }
      ],
      "stateMutability": "view",
      "type": "function"
    },
    {
      "inputs": [],
      "name": "getAPR",
      "outputs": [
        {
          "internalType": "uint256",
          "name": "",
          "type": "uint256"
        }
      ],
      "stateMutability": "view",
      "type": "function"
    },
    {
      "inputs": [],
      "name": "getPositions",
      "outputs": [
        {
          "components": [
            {
              "internalType": "address",
              "name": "walletAddress",
              "type": "address"
            },
            {
              "internalType": "uint256",
              "name": "createdDate",
              "type": "uint256"
            },
            {
              "internalType": "uint256",
              "name": "amountStaked",
              "type": "uint256"
            },
            {
              "internalType": "uint256",
              "name": "rewardStaked",
              "type": "uint256"
            }
          ],
          "internalType": "struct Staking.Position",
          "name": "",
          "type": "tuple"
        }
      ],
      "stateMutability": "view",
      "type": "function"
    },
    {
      "inputs": [],
      "name": "getRewards",
      "outputs": [
        {
          "internalType": "uint256",
          "name": "",
          "type": "uint256"
        }
      ],
      "stateMutability": "view",
      "type": "function"
    },
    {
      "inputs": [],
      "name": "harvest",
      "outputs": [],
      "stateMutability": "nonpayable",
      "type": "function"
    },
    {
      "inputs": [],
      "name": "owner",
      "outputs": [
        {
          "internalType": "address",
          "name": "",
          "type": "address"
        }
      ],
      "stateMutability": "view",
      "type": "function"
    },
    {
      "inputs": [
        {
          "internalType": "uint256",
          "name": "apr",
          "type": "uint256"
        },
        {
          "internalType": "uint256",
          "name": "amountStaked",
          "type": "uint256"
        },
        {
          "internalType": "uint256",
          "name": "startDate",
          "type": "uint256"
        }
      ],
      "name": "reward",
      "outputs": [
        {
          "internalType": "uint256",
          "name": "",
          "type": "uint256"
        }
      ],
      "stateMutability": "view",
      "type": "function"
    },
    {
      "inputs": [
        {
          "internalType": "uint256",
          "name": "amount",
          "type": "uint256"
        }
      ],
      "name": "stake",
      "outputs": [],
      "stateMutability": "nonpayable",
      "type": "function"
    },
    {
      "inputs": [],
      "name": "stakingToken",
      "outputs": [
        {
          "internalType": "contract IERC20",
          "name": "",
          "type": "address"
        }
      ],
      "stateMutability": "view",
      "type": "function"
    },
    {
      "inputs": [],
      "name": "unstake",
      "outputs": [],
      "stateMutability": "nonpayable",
      "type": "function"
    }
  ],
  "bytecode": "0x60806040523480156200001157600080fd5b506040516200145f3803806200145f8339818101604052810190620000379190620000d6565b336000806101000a81548173ffffffffffffffffffffffffffffffffffffffff021916908373ffffffffffffffffffffffffffffffffffffffff16021790555080600160006101000a81548173ffffffffffffffffffffffffffffffffffffffff021916908373ffffffffffffffffffffffffffffffffffffffff1602179055505062000150565b600081519050620000d08162000136565b92915050565b600060208284031215620000e957600080fd5b6000620000f984828501620000bf565b91505092915050565b60006200010f8262000116565b9050919050565b600073ffffffffffffffffffffffffffffffffffffffff82169050919050565b620001418162000102565b81146200014d57600080fd5b50565b6112ff80620001606000396000f3fe608060405234801561001057600080fd5b50600436106100a95760003560e01c806372f702f31161007157806372f702f314610140578063802758601461015e5780638da5cb5b1461017c578063a694fc3a1461019a578063c89d5b8b146101b6578063d1a02a86146101d4576100a9565b8063035694b6146100ae5780630572b0cc146100de5780632def6620146100fc5780634641257d146101065780635f51522614610110575b600080fd5b6100c860048036038101906100c39190610d47565b610204565b6040516100d59190611079565b60405180910390f35b6100e66102bd565b6040516100f39190611079565b60405180910390f35b6101046102ea565b005b61010e610485565b005b61012a60048036038101906101259190610ca3565b61065e565b6040516101379190611079565b60405180910390f35b610148610712565b6040516101559190610fe3565b60405180910390f35b610166610738565b604051610173919061105e565b60405180910390f35b6101846107c6565b6040516101919190610f68565b60405180910390f35b6101b460048036038101906101af9190610cf5565b6107ea565b005b6101be610954565b6040516101cb9190611079565b60405180910390f35b6101ee60048036038101906101e99190610cf5565b610ae3565b6040516101fb9190611079565b60405180910390f35b60008082426102139190611186565b9050600061022b603c83610be590919063ffffffff16565b90506000610249662386f26fc1000088610bfb90919063ffffffff16565b905060006102636208052083610be590919063ffffffff16565b90506000610294670de0b6b3a7640000610286848b610bfb90919063ffffffff16565b610be590919063ffffffff16565b905060006102ab8583610bfb90919063ffffffff16565b90508096505050505050509392505050565b6000806102c8610954565b905060006102e0826002800154600260010154610204565b9050809250505090565b3373ffffffffffffffffffffffffffffffffffffffff16600260000160009054906101000a900473ffffffffffffffffffffffffffffffffffffffff1673ffffffffffffffffffffffffffffffffffffffff161461037d576040517f08c379a00000000000000000000000000000000000000000000000000000000081526004016103749061101e565b60405180910390fd5b6000600280015414156103c5576040517f08c379a00000000000000000000000000000000000000000000000000000000081526004016103bc9061103e565b60405180910390fd5b600160009054906101000a900473ffffffffffffffffffffffffffffffffffffffff1673ffffffffffffffffffffffffffffffffffffffff1663a9059cbb3360028001546040518363ffffffff1660e01b8152600401610426929190610fba565b602060405180830381600087803b15801561044057600080fd5b505af1158015610454573d6000803e3d6000fd5b505050506040513d601f19601f820116820180604052508101906104789190610ccc565b5060006002800181905550565b600061048f610954565b905060006104a7826002800154600260010154610204565b9050806002600301819055503373ffffffffffffffffffffffffffffffffffffffff16600260000160009054906101000a900473ffffffffffffffffffffffffffffffffffffffff1673ffffffffffffffffffffffffffffffffffffffff1614610546576040517f08c379a000000000000000000000000000000000000000000000000000000000815260040161053d9061101e565b60405180910390fd5b6000600260030154141561058f576040517f08c379a000000000000000000000000000000000000000000000000000000000815260040161058690610ffe565b60405180910390fd5b600160009054906101000a900473ffffffffffffffffffffffffffffffffffffffff1673ffffffffffffffffffffffffffffffffffffffff1663a9059cbb336002600301546040518363ffffffff1660e01b81526004016105f1929190610fba565b602060405180830381600087803b15801561060b57600080fd5b505af115801561061f573d6000803e3d6000fd5b505050506040513d601f19601f820116820180604052508101906106439190610ccc565b50600060026001018190555060006002600301819055505050565b6000600160009054906101000a900473ffffffffffffffffffffffffffffffffffffffff1673ffffffffffffffffffffffffffffffffffffffff166370a08231836040518263ffffffff1660e01b81526004016106bb9190610f68565b60206040518083038186803b1580156106d357600080fd5b505afa1580156106e7573d6000803e3d6000fd5b505050506040513d601f19601f8201168201806040525081019061070b9190610d1e565b9050919050565b600160009054906101000a900473ffffffffffffffffffffffffffffffffffffffff1681565b610740610c11565b60026040518060800160405290816000820160009054906101000a900473ffffffffffffffffffffffffffffffffffffffff1673ffffffffffffffffffffffffffffffffffffffff1673ffffffffffffffffffffffffffffffffffffffff1681526020016001820154815260200160028201548152602001600382015481525050905090565b60008054906101000a900473ffffffffffffffffffffffffffffffffffffffff1681565b600160009054906101000a900473ffffffffffffffffffffffffffffffffffffffff1673ffffffffffffffffffffffffffffffffffffffff166323b872dd3330846040518463ffffffff1660e01b815260040161084993929190610f83565b602060405180830381600087803b15801561086357600080fd5b505af1158015610877573d6000803e3d6000fd5b505050506040513d601f19601f8201168201806040525081019061089b9190610ccc565b5060405180608001604052803373ffffffffffffffffffffffffffffffffffffffff1681526020014281526020018260028001546108d991906110a5565b8152602001600260030154815250600260008201518160000160006101000a81548173ffffffffffffffffffffffffffffffffffffffff021916908373ffffffffffffffffffffffffffffffffffffffff16021790555060208201518160010155604082015181600201556060820151816003015590505050565b600080600160009054906101000a900473ffffffffffffffffffffffffffffffffffffffff1673ffffffffffffffffffffffffffffffffffffffff166370a08231306040518263ffffffff1660e01b81526004016109b29190610f68565b60206040518083038186803b1580156109ca57600080fd5b505afa1580156109de573d6000803e3d6000fd5b505050506040513d601f19601f82011682018060405250810190610a029190610d1e565b90506000600160009054906101000a900473ffffffffffffffffffffffffffffffffffffffff1673ffffffffffffffffffffffffffffffffffffffff166318160ddd6040518163ffffffff1660e01b815260040160206040518083038186803b158015610a6e57600080fd5b505afa158015610a82573d6000803e3d6000fd5b505050506040513d601f19601f82011682018060405250810190610aa69190610d1e565b90506000610ad082610ac2606486610bfb90919063ffffffff16565b610be590919063ffffffff16565b9050610adb81610ae3565b935050505090565b6000806000905060148311610b2057601483610aff91906110fb565b6157e4610b0c919061112c565b615dc0610b199190611186565b9050610bdc565b60288311610b615760148084610b369190611186565b610b4091906110fb565b6102ee610b4d919061112c565b6105dc610b5a9190611186565b9050610bdb565b6032831015610ba357600a602884610b799190611186565b610b8391906110fb565b604b610b8f919061112c565b6102ee610b9c9190611186565b9050610bda565b603283610bb09190611186565b600f610bbc919061112c565b6102ee610bc99190611186565b90506000811015610bd957600090505b5b5b5b80915050919050565b60008183610bf391906110fb565b905092915050565b60008183610c09919061112c565b905092915050565b6040518060800160405280600073ffffffffffffffffffffffffffffffffffffffff1681526020016000815260200160008152602001600081525090565b600081359050610c5e81611284565b92915050565b600081519050610c738161129b565b92915050565b600081359050610c88816112b2565b92915050565b600081519050610c9d816112b2565b92915050565b600060208284031215610cb557600080fd5b6000610cc384828501610c4f565b91505092915050565b600060208284031215610cde57600080fd5b6000610cec84828501610c64565b91505092915050565b600060208284031215610d0757600080fd5b6000610d1584828501610c79565b91505092915050565b600060208284031215610d3057600080fd5b6000610d3e84828501610c8e565b91505092915050565b600080600060608486031215610d5c57600080fd5b6000610d6a86828701610c79565b9350506020610d7b86828701610c79565b9250506040610d8c86828701610c79565b9150509250925092565b610d9f816111ba565b82525050565b610dae816111ba565b82525050565b610dbd81611202565b82525050565b6000610dd0603783611094565b91507f74686520757365722073686f756c64206861766520616e20616d6f756e74207260008301527f657761726420746f2068617665206120686172766573740000000000000000006020830152604082019050919050565b6000610e36602983611094565b91507f4f6e6c7920706f736974696f6e2063726561746f72206d6179206d6f6469667960008301527f20706f736974696f6e00000000000000000000000000000000000000000000006020830152604082019050919050565b6000610e9c603083611094565b91507f74686520757365722073686f756c64206861766520616e20616d6f756e74207360008301527f74616b656420746f20756e7374616b65000000000000000000000000000000006020830152604082019050919050565b608082016000820151610f0b6000850182610d96565b506020820151610f1e6020850182610f4a565b506040820151610f316040850182610f4a565b506060820151610f446060850182610f4a565b50505050565b610f53816111f8565b82525050565b610f62816111f8565b82525050565b6000602082019050610f7d6000830184610da5565b92915050565b6000606082019050610f986000830186610da5565b610fa56020830185610da5565b610fb26040830184610f59565b949350505050565b6000604082019050610fcf6000830185610da5565b610fdc6020830184610f59565b9392505050565b6000602082019050610ff86000830184610db4565b92915050565b6000602082019050818103600083015261101781610dc3565b9050919050565b6000602082019050818103600083015261103781610e29565b9050919050565b6000602082019050818103600083015261105781610e8f565b9050919050565b60006080820190506110736000830184610ef5565b92915050565b600060208201905061108e6000830184610f59565b92915050565b600082825260208201905092915050565b60006110b0826111f8565b91506110bb836111f8565b9250827fffffffffffffffffffffffffffffffffffffffffffffffffffffffffffffffff038211156110f0576110ef611226565b5b828201905092915050565b6000611106826111f8565b9150611111836111f8565b92508261112157611120611255565b5b828204905092915050565b6000611137826111f8565b9150611142836111f8565b9250817fffffffffffffffffffffffffffffffffffffffffffffffffffffffffffffffff048311821515161561117b5761117a611226565b5b828202905092915050565b6000611191826111f8565b915061119c836111f8565b9250828210156111af576111ae611226565b5b828203905092915050565b60006111c5826111d8565b9050919050565b60008115159050919050565b600073ffffffffffffffffffffffffffffffffffffffff82169050919050565b6000819050919050565b600061120d82611214565b9050919050565b600061121f826111d8565b9050919050565b7f4e487b7100000000000000000000000000000000000000000000000000000000600052601160045260246000fd5b7f4e487b7100000000000000000000000000000000000000000000000000000000600052601260045260246000fd5b61128d816111ba565b811461129857600080fd5b50565b6112a4816111cc565b81146112af57600080fd5b50565b6112bb816111f8565b81146112c657600080fd5b5056fea26469706673582212209ab250939293a2a5bfe9fe3e0d7e15fdcdca0e0c8295e69dbcbb93c69489ae1064736f6c63430008000033",
  "linkReferences": {},
  "deployedLinkReferences": {}
}