{
  "_format": "hh-sol-artifact-1",
  "contractName": "Staking",
  "sourceName": "contracts/Staking.sol",
  "abi": [
    {
      "inputs": [
        {
          "internalType": "address",
          "name": "token",
          "type": "address"
        }
      ],
      "stateMutability": "nonpayable",
      "type": "constructor"
    },
    {
      "inputs": [
        {
          "internalType": "uint256",
          "name": "totalStakedPercentage",
          "type": "uint256"
        }
      ],
      "name": "calculateAPR",
      "outputs": [
        {
          "internalType": "uint256",
          "name": "",
          "type": "uint256"
        }
      ],
      "stateMutability": "pure",
      "type": "function"
    },
    {
      "inputs": [
        {
          "internalType": "address",
          "name": "account",
          "type": "address"
        }
      ],
      "name": "checkBalance",
      "outputs": [
        {
          "internalType": "uint256",
          "name": "",
          "type": "uint256"
        }
      ],
      "stateMutability": "view",
      "type": "function"
    },
    {
      "inputs": [],
      "name": "getAPR",
      "outputs": [
        {
          "internalType": "uint256",
          "name": "",
          "type": "uint256"
        }
      ],
      "stateMutability": "view",
      "type": "function"
    },
    {
      "inputs": [],
      "name": "getPositions",
      "outputs": [
        {
          "components": [
            {
              "internalType": "address",
              "name": "walletAddress",
              "type": "address"
            },
            {
              "internalType": "uint256",
              "name": "createdDate",
              "type": "uint256"
            },
            {
              "internalType": "uint256",
              "name": "amountStaked",
              "type": "uint256"
            },
            {
              "internalType": "uint256",
              "name": "rewardStaked",
              "type": "uint256"
            },
            {
              "internalType": "uint256",
              "name": "savedReward",
              "type": "uint256"
            }
          ],
          "internalType": "struct Staking.Position",
          "name": "",
          "type": "tuple"
        }
      ],
      "stateMutability": "view",
      "type": "function"
    },
    {
      "inputs": [],
      "name": "getRewards",
      "outputs": [
        {
          "internalType": "uint256",
          "name": "",
          "type": "uint256"
        }
      ],
      "stateMutability": "view",
      "type": "function"
    },
    {
      "inputs": [],
      "name": "getTotalStakedAmount",
      "outputs": [
        {
          "internalType": "uint256",
          "name": "",
          "type": "uint256"
        }
      ],
      "stateMutability": "view",
      "type": "function"
    },
    {
      "inputs": [],
      "name": "harvest",
      "outputs": [],
      "stateMutability": "nonpayable",
      "type": "function"
    },
    {
      "inputs": [],
      "name": "owner",
      "outputs": [
        {
          "internalType": "address",
          "name": "",
          "type": "address"
        }
      ],
      "stateMutability": "view",
      "type": "function"
    },
    {
      "inputs": [
        {
          "internalType": "address",
          "name": "",
          "type": "address"
        }
      ],
      "name": "positions",
      "outputs": [
        {
          "internalType": "address",
          "name": "walletAddress",
          "type": "address"
        },
        {
          "internalType": "uint256",
          "name": "createdDate",
          "type": "uint256"
        },
        {
          "internalType": "uint256",
          "name": "amountStaked",
          "type": "uint256"
        },
        {
          "internalType": "uint256",
          "name": "rewardStaked",
          "type": "uint256"
        },
        {
          "internalType": "uint256",
          "name": "savedReward",
          "type": "uint256"
        }
      ],
      "stateMutability": "view",
      "type": "function"
    },
    {
      "inputs": [
        {
          "internalType": "uint256",
          "name": "apr",
          "type": "uint256"
        },
        {
          "internalType": "uint256",
          "name": "amountStaked",
          "type": "uint256"
        },
        {
          "internalType": "uint256",
          "name": "startDate",
          "type": "uint256"
        }
      ],
      "name": "reward",
      "outputs": [
        {
          "internalType": "uint256",
          "name": "",
          "type": "uint256"
        }
      ],
      "stateMutability": "view",
      "type": "function"
    },
    {
      "inputs": [
        {
          "internalType": "uint256",
          "name": "amount",
          "type": "uint256"
        }
      ],
      "name": "stake",
      "outputs": [],
      "stateMutability": "nonpayable",
      "type": "function"
    },
    {
      "inputs": [],
      "name": "stakedAmount",
      "outputs": [
        {
          "internalType": "uint256",
          "name": "amountStaked",
          "type": "uint256"
        }
      ],
      "stateMutability": "view",
      "type": "function"
    },
    {
      "inputs": [],
      "name": "stakingToken",
      "outputs": [
        {
          "internalType": "contract IERC20",
          "name": "",
          "type": "address"
        }
      ],
      "stateMutability": "view",
      "type": "function"
    },
    {
      "inputs": [],
      "name": "unstake",
      "outputs": [],
      "stateMutability": "nonpayable",
      "type": "function"
    }
  ],
  "bytecode": "0x60806040523480156200001157600080fd5b50604051620020b0380380620020b08339818101604052810190620000379190620000d6565b336000806101000a81548173ffffffffffffffffffffffffffffffffffffffff021916908373ffffffffffffffffffffffffffffffffffffffff16021790555080600160006101000a81548173ffffffffffffffffffffffffffffffffffffffff021916908373ffffffffffffffffffffffffffffffffffffffff1602179055505062000150565b600081519050620000d08162000136565b92915050565b600060208284031215620000e957600080fd5b6000620000f984828501620000bf565b91505092915050565b60006200010f8262000116565b9050919050565b600073ffffffffffffffffffffffffffffffffffffffff82169050919050565b620001418162000102565b81146200014d57600080fd5b50565b611f5080620001606000396000f3fe608060405234801561001057600080fd5b50600436106100ea5760003560e01c80635f5152261161008c5780638da5cb5b116100665780638da5cb5b1461022d578063a694fc3a1461024b578063c89d5b8b14610267578063d1a02a8614610285576100ea565b80635f515226146101c157806372f702f3146101f1578063802758601461020f576100ea565b8063373d6132116100c8578063373d61321461014757806338adb6f0146101655780634641257d1461018357806355f575101461018d576100ea565b8063035694b6146100ef5780630572b0cc1461011f5780632def66201461013d575b600080fd5b61010960048036038101906101049190611932565b6102b5565b6040516101169190611cca565b60405180910390f35b610127610403565b6040516101349190611cca565b60405180910390f35b6101456104fe565b005b61014f6109d7565b60405161015c9190611cca565b60405180910390f35b61016d6109e3565b60405161017a9190611cca565b60405180910390f35b61018b6109f0565b005b6101a760048036038101906101a2919061188e565b610e46565b6040516101b8959493929190611be1565b60405180910390f35b6101db60048036038101906101d6919061188e565b610e9c565b6040516101e89190611cca565b60405180910390f35b6101f9610f50565b6040516102069190611c34565b60405180910390f35b610217610f76565b6040516102249190611caf565b60405180910390f35b61023561104b565b6040516102429190611b66565b60405180910390f35b610265600480360381019061026091906118e0565b61106f565b005b61026f6115f0565b60405161027c9190611cca565b60405180910390f35b61029f600480360381019061029a91906118e0565b6116da565b6040516102ac9190611cca565b60405180910390f35b600080600260003373ffffffffffffffffffffffffffffffffffffffff1673ffffffffffffffffffffffffffffffffffffffff16815260200190815260200160002060020154146103b6576000824261030e9190611dd7565b90506000610326603c836117c990919063ffffffff16565b90506000610344662386f26fc10000886117df90919063ffffffff16565b9050600061035e62080520836117c990919063ffffffff16565b9050600061038f670de0b6b3a7640000610381848b6117df90919063ffffffff16565b6117c990919063ffffffff16565b905060006103a685836117df90919063ffffffff16565b90508096505050505050506103fc565b600260003373ffffffffffffffffffffffffffffffffffffffff1673ffffffffffffffffffffffffffffffffffffffff1681526020019081526020016000206003015490505b9392505050565b60008061040e6115f0565b905060006104a182600260003373ffffffffffffffffffffffffffffffffffffffff1673ffffffffffffffffffffffffffffffffffffffff16815260200190815260200160002060020154600260003373ffffffffffffffffffffffffffffffffffffffff1673ffffffffffffffffffffffffffffffffffffffff168152602001908152602001600020600101546102b5565b90506000600260003373ffffffffffffffffffffffffffffffffffffffff1673ffffffffffffffffffffffffffffffffffffffff16815260200190815260200160002060040154905080826104f69190611cf6565b935050505090565b3373ffffffffffffffffffffffffffffffffffffffff16600260003373ffffffffffffffffffffffffffffffffffffffff1673ffffffffffffffffffffffffffffffffffffffff16815260200190815260200160002060000160009054906101000a900473ffffffffffffffffffffffffffffffffffffffff1673ffffffffffffffffffffffffffffffffffffffff16146105ce576040517f08c379a00000000000000000000000000000000000000000000000000000000081526004016105c590611c4f565b60405180910390fd5b6000600260003373ffffffffffffffffffffffffffffffffffffffff1673ffffffffffffffffffffffffffffffffffffffff168152602001908152602001600020600201541415610654576040517f08c379a000000000000000000000000000000000000000000000000000000000815260040161064b90611c8f565b60405180910390fd5b600061065e6115f0565b905060006106f182600260003373ffffffffffffffffffffffffffffffffffffffff1673ffffffffffffffffffffffffffffffffffffffff16815260200190815260200160002060020154600260003373ffffffffffffffffffffffffffffffffffffffff1673ffffffffffffffffffffffffffffffffffffffff168152602001908152602001600020600101546102b5565b90506000600260003373ffffffffffffffffffffffffffffffffffffffff1673ffffffffffffffffffffffffffffffffffffffff1681526020019081526020016000206004015482600260003373ffffffffffffffffffffffffffffffffffffffff1673ffffffffffffffffffffffffffffffffffffffff168152602001908152602001600020600201546107869190611cf6565b6107909190611cf6565b9050600160009054906101000a900473ffffffffffffffffffffffffffffffffffffffff1673ffffffffffffffffffffffffffffffffffffffff1663a9059cbb33836040518363ffffffff1660e01b81526004016107ef929190611bb8565b602060405180830381600087803b15801561080957600080fd5b505af115801561081d573d6000803e3d6000fd5b505050506040513d601f19601f8201168201806040525081019061084191906118b7565b506040518060200160405280600260003373ffffffffffffffffffffffffffffffffffffffff1673ffffffffffffffffffffffffffffffffffffffff168152602001908152602001600020600201546003600001546108a09190611dd7565b8152506003600082015181600001559050506000600260003373ffffffffffffffffffffffffffffffffffffffff1673ffffffffffffffffffffffffffffffffffffffff168152602001908152602001600020600101819055506000600260003373ffffffffffffffffffffffffffffffffffffffff1673ffffffffffffffffffffffffffffffffffffffff168152602001908152602001600020600301819055506000600260003373ffffffffffffffffffffffffffffffffffffffff1673ffffffffffffffffffffffffffffffffffffffff168152602001908152602001600020600201819055506000600260003373ffffffffffffffffffffffffffffffffffffffff1673ffffffffffffffffffffffffffffffffffffffff16815260200190815260200160002060040181905550505050565b60038060000154905081565b6000600360000154905090565b3373ffffffffffffffffffffffffffffffffffffffff16600260003373ffffffffffffffffffffffffffffffffffffffff1673ffffffffffffffffffffffffffffffffffffffff16815260200190815260200160002060000160009054906101000a900473ffffffffffffffffffffffffffffffffffffffff1673ffffffffffffffffffffffffffffffffffffffff1614610ac0576040517f08c379a0000000000000000000000000000000000000000000000000000000008152600401610ab790611c4f565b60405180910390fd5b6000600260003373ffffffffffffffffffffffffffffffffffffffff1673ffffffffffffffffffffffffffffffffffffffff168152602001908152602001600020600201541415610b46576040517f08c379a0000000000000000000000000000000000000000000000000000000008152600401610b3d90611c6f565b60405180910390fd5b6000610b506115f0565b90506000610be382600260003373ffffffffffffffffffffffffffffffffffffffff1673ffffffffffffffffffffffffffffffffffffffff16815260200190815260200160002060020154600260003373ffffffffffffffffffffffffffffffffffffffff1673ffffffffffffffffffffffffffffffffffffffff168152602001908152602001600020600101546102b5565b905080600260003373ffffffffffffffffffffffffffffffffffffffff1673ffffffffffffffffffffffffffffffffffffffff16815260200190815260200160002060030181905550600160009054906101000a900473ffffffffffffffffffffffffffffffffffffffff1673ffffffffffffffffffffffffffffffffffffffff1663a9059cbb33600260003373ffffffffffffffffffffffffffffffffffffffff1673ffffffffffffffffffffffffffffffffffffffff16815260200190815260200160002060040154600260003373ffffffffffffffffffffffffffffffffffffffff1673ffffffffffffffffffffffffffffffffffffffff16815260200190815260200160002060030154610cfb9190611cf6565b6040518363ffffffff1660e01b8152600401610d18929190611bb8565b602060405180830381600087803b158015610d3257600080fd5b505af1158015610d46573d6000803e3d6000fd5b505050506040513d601f19601f82011682018060405250810190610d6a91906118b7565b5042600260003373ffffffffffffffffffffffffffffffffffffffff1673ffffffffffffffffffffffffffffffffffffffff168152602001908152602001600020600101819055506000600260003373ffffffffffffffffffffffffffffffffffffffff1673ffffffffffffffffffffffffffffffffffffffff168152602001908152602001600020600301819055506000600260003373ffffffffffffffffffffffffffffffffffffffff1673ffffffffffffffffffffffffffffffffffffffff168152602001908152602001600020600401819055505050565b60026020528060005260406000206000915090508060000160009054906101000a900473ffffffffffffffffffffffffffffffffffffffff16908060010154908060020154908060030154908060040154905085565b6000600160009054906101000a900473ffffffffffffffffffffffffffffffffffffffff1673ffffffffffffffffffffffffffffffffffffffff166370a08231836040518263ffffffff1660e01b8152600401610ef99190611b66565b60206040518083038186803b158015610f1157600080fd5b505afa158015610f25573d6000803e3d6000fd5b505050506040513d601f19601f82011682018060405250810190610f499190611909565b9050919050565b600160009054906101000a900473ffffffffffffffffffffffffffffffffffffffff1681565b610f7e6117f5565b600260003373ffffffffffffffffffffffffffffffffffffffff1673ffffffffffffffffffffffffffffffffffffffff1681526020019081526020016000206040518060a00160405290816000820160009054906101000a900473ffffffffffffffffffffffffffffffffffffffff1673ffffffffffffffffffffffffffffffffffffffff1673ffffffffffffffffffffffffffffffffffffffff168152602001600182015481526020016002820154815260200160038201548152602001600482015481525050905090565b60008054906101000a900473ffffffffffffffffffffffffffffffffffffffff1681565b600160009054906101000a900473ffffffffffffffffffffffffffffffffffffffff1673ffffffffffffffffffffffffffffffffffffffff166323b872dd3330846040518463ffffffff1660e01b81526004016110ce93929190611b81565b602060405180830381600087803b1580156110e857600080fd5b505af11580156110fc573d6000803e3d6000fd5b505050506040513d601f19601f8201168201806040525081019061112091906118b7565b50600061112b6115f0565b905060006111be82600260003373ffffffffffffffffffffffffffffffffffffffff1673ffffffffffffffffffffffffffffffffffffffff16815260200190815260200160002060020154600260003373ffffffffffffffffffffffffffffffffffffffff1673ffffffffffffffffffffffffffffffffffffffff168152602001908152602001600020600101546102b5565b905080600260003373ffffffffffffffffffffffffffffffffffffffff1673ffffffffffffffffffffffffffffffffffffffff168152602001908152602001600020600301819055506000600260003373ffffffffffffffffffffffffffffffffffffffff1673ffffffffffffffffffffffffffffffffffffffff16815260200190815260200160002060030154146113f3576040518060a001604052803373ffffffffffffffffffffffffffffffffffffffff16815260200142815260200184600260003373ffffffffffffffffffffffffffffffffffffffff1673ffffffffffffffffffffffffffffffffffffffff16815260200190815260200160002060020160008282546112d09190611cf6565b92505081905581526020016000815260200182600260003373ffffffffffffffffffffffffffffffffffffffff1673ffffffffffffffffffffffffffffffffffffffff16815260200190815260200160002060040160008282546113349190611cf6565b925050819055815250600260003373ffffffffffffffffffffffffffffffffffffffff1673ffffffffffffffffffffffffffffffffffffffff16815260200190815260200160002060008201518160000160006101000a81548173ffffffffffffffffffffffffffffffffffffffff021916908373ffffffffffffffffffffffffffffffffffffffff160217905550602082015181600101556040820151816002015560608201518160030155608082015181600401559050506115bd565b6040518060a001604052803373ffffffffffffffffffffffffffffffffffffffff16815260200142815260200184600260003373ffffffffffffffffffffffffffffffffffffffff1673ffffffffffffffffffffffffffffffffffffffff16815260200190815260200160002060020160008282546114729190611cf6565b9250508190558152602001600260003373ffffffffffffffffffffffffffffffffffffffff1673ffffffffffffffffffffffffffffffffffffffff168152602001908152602001600020600301548152602001600260003373ffffffffffffffffffffffffffffffffffffffff1673ffffffffffffffffffffffffffffffffffffffff16815260200190815260200160002060040154815250600260003373ffffffffffffffffffffffffffffffffffffffff1673ffffffffffffffffffffffffffffffffffffffff16815260200190815260200160002060008201518160000160006101000a81548173ffffffffffffffffffffffffffffffffffffffff021916908373ffffffffffffffffffffffffffffffffffffffff160217905550602082015181600101556040820151816002015560608201518160030155608082015181600401559050505b6040518060200160405280846003600001546115d99190611cf6565b815250600360008201518160000155905050505050565b60008060036000015490506000600160009054906101000a900473ffffffffffffffffffffffffffffffffffffffff1673ffffffffffffffffffffffffffffffffffffffff166318160ddd6040518163ffffffff1660e01b815260040160206040518083038186803b15801561166557600080fd5b505afa158015611679573d6000803e3d6000fd5b505050506040513d601f19601f8201168201806040525081019061169d9190611909565b905060006116c7826116b96064866117df90919063ffffffff16565b6117c990919063ffffffff16565b90506116d2816116da565b935050505090565b6000806000905060148311611717576014836109516116f99190611d7d565b6117039190611d4c565b6109606117109190611dd7565b90506117c0565b60288311611756576014808461172d9190611dd7565b60086117399190611d7d565b6117439190611d4c565b600f61174f9190611dd7565b90506117bf565b603283101561179757600a60288461176e9190611dd7565b600761177a9190611d7d565b6117849190611d4c565b60076117909190611dd7565b90506117be565b603280846117a59190611dd7565b60076117b19190611d7d565b6117bb9190611d4c565b90505b5b5b80915050919050565b600081836117d79190611d4c565b905092915050565b600081836117ed9190611d7d565b905092915050565b6040518060a00160405280600073ffffffffffffffffffffffffffffffffffffffff168152602001600081526020016000815260200160008152602001600081525090565b60008135905061184981611ed5565b92915050565b60008151905061185e81611eec565b92915050565b60008135905061187381611f03565b92915050565b60008151905061188881611f03565b92915050565b6000602082840312156118a057600080fd5b60006118ae8482850161183a565b91505092915050565b6000602082840312156118c957600080fd5b60006118d78482850161184f565b91505092915050565b6000602082840312156118f257600080fd5b600061190084828501611864565b91505092915050565b60006020828403121561191b57600080fd5b600061192984828501611879565b91505092915050565b60008060006060848603121561194757600080fd5b600061195586828701611864565b935050602061196686828701611864565b925050604061197786828701611864565b9150509250925092565b61198a81611e0b565b82525050565b61199981611e0b565b82525050565b6119a881611e53565b82525050565b60006119bb602983611ce5565b91507f4f6e6c79206f776e6572206d6179206d6f6469667920616e207374616b696e6760008301527f20706f736974696f6e00000000000000000000000000000000000000000000006020830152604082019050919050565b6000611a21603783611ce5565b91507f74686520757365722073686f756c64206861766520616e20616d6f756e74207260008301527f657761726420746f2068617665206120686172766573740000000000000000006020830152604082019050919050565b6000611a87603083611ce5565b91507f74686520757365722073686f756c64206861766520616e20616d6f756e74207360008301527f74616b656420746f20756e7374616b65000000000000000000000000000000006020830152604082019050919050565b60a082016000820151611af66000850182611981565b506020820151611b096020850182611b48565b506040820151611b1c6040850182611b48565b506060820151611b2f6060850182611b48565b506080820151611b426080850182611b48565b50505050565b611b5181611e49565b82525050565b611b6081611e49565b82525050565b6000602082019050611b7b6000830184611990565b92915050565b6000606082019050611b966000830186611990565b611ba36020830185611990565b611bb06040830184611b57565b949350505050565b6000604082019050611bcd6000830185611990565b611bda6020830184611b57565b9392505050565b600060a082019050611bf66000830188611990565b611c036020830187611b57565b611c106040830186611b57565b611c1d6060830185611b57565b611c2a6080830184611b57565b9695505050505050565b6000602082019050611c49600083018461199f565b92915050565b60006020820190508181036000830152611c68816119ae565b9050919050565b60006020820190508181036000830152611c8881611a14565b9050919050565b60006020820190508181036000830152611ca881611a7a565b9050919050565b600060a082019050611cc46000830184611ae0565b92915050565b6000602082019050611cdf6000830184611b57565b92915050565b600082825260208201905092915050565b6000611d0182611e49565b9150611d0c83611e49565b9250827fffffffffffffffffffffffffffffffffffffffffffffffffffffffffffffffff03821115611d4157611d40611e77565b5b828201905092915050565b6000611d5782611e49565b9150611d6283611e49565b925082611d7257611d71611ea6565b5b828204905092915050565b6000611d8882611e49565b9150611d9383611e49565b9250817fffffffffffffffffffffffffffffffffffffffffffffffffffffffffffffffff0483118215151615611dcc57611dcb611e77565b5b828202905092915050565b6000611de282611e49565b9150611ded83611e49565b925082821015611e0057611dff611e77565b5b828203905092915050565b6000611e1682611e29565b9050919050565b60008115159050919050565b600073ffffffffffffffffffffffffffffffffffffffff82169050919050565b6000819050919050565b6000611e5e82611e65565b9050919050565b6000611e7082611e29565b9050919050565b7f4e487b7100000000000000000000000000000000000000000000000000000000600052601160045260246000fd5b7f4e487b7100000000000000000000000000000000000000000000000000000000600052601260045260246000fd5b611ede81611e0b565b8114611ee957600080fd5b50565b611ef581611e1d565b8114611f0057600080fd5b50565b611f0c81611e49565b8114611f1757600080fd5b5056fea264697066735822122034696758a33dcad628ace210987c3ce018ada419d1d4556a26665b665ba3f6d864736f6c63430008000033",
  "linkReferences": {},
  "deployedLinkReferences": {}
}