{
  "_format": "hh-sol-artifact-1",
  "contractName": "Staking",
  "sourceName": "contracts/Staking.sol",
  "abi": [
    {
      "inputs": [
        {
          "internalType": "address",
          "name": "token",
          "type": "address"
        }
      ],
      "stateMutability": "nonpayable",
      "type": "constructor"
    },
    {
      "inputs": [
        {
          "internalType": "uint256",
          "name": "positionId",
          "type": "uint256"
        },
        {
          "internalType": "uint256",
          "name": "newUnlockDate",
          "type": "uint256"
        }
      ],
      "name": "changeUnlockDate",
      "outputs": [],
      "stateMutability": "nonpayable",
      "type": "function"
    },
    {
      "inputs": [
        {
          "internalType": "uint256",
          "name": "positionId",
          "type": "uint256"
        }
      ],
      "name": "closePosition",
      "outputs": [],
      "stateMutability": "nonpayable",
      "type": "function"
    },
    {
      "inputs": [],
      "name": "currentPositionId",
      "outputs": [
        {
          "internalType": "uint256",
          "name": "",
          "type": "uint256"
        }
      ],
      "stateMutability": "view",
      "type": "function"
    },
    {
      "inputs": [
        {
          "internalType": "uint256",
          "name": "numDays",
          "type": "uint256"
        }
      ],
      "name": "getInterestRate",
      "outputs": [
        {
          "internalType": "uint256",
          "name": "",
          "type": "uint256"
        }
      ],
      "stateMutability": "view",
      "type": "function"
    },
    {
      "inputs": [],
      "name": "getLockPeriods",
      "outputs": [
        {
          "internalType": "uint256[]",
          "name": "",
          "type": "uint256[]"
        }
      ],
      "stateMutability": "view",
      "type": "function"
    },
    {
      "inputs": [
        {
          "internalType": "uint256",
          "name": "positionId",
          "type": "uint256"
        }
      ],
      "name": "getPositionByID",
      "outputs": [
        {
          "components": [
            {
              "internalType": "uint256",
              "name": "positionId",
              "type": "uint256"
            },
            {
              "internalType": "address",
              "name": "walletAddress",
              "type": "address"
            },
            {
              "internalType": "uint256",
              "name": "createdDate",
              "type": "uint256"
            },
            {
              "internalType": "uint256",
              "name": "unlockDate",
              "type": "uint256"
            },
            {
              "internalType": "uint256",
              "name": "percentInterest",
              "type": "uint256"
            },
            {
              "internalType": "uint256",
              "name": "weiStaked",
              "type": "uint256"
            },
            {
              "internalType": "uint256",
              "name": "weiInterest",
              "type": "uint256"
            },
            {
              "internalType": "bool",
              "name": "open",
              "type": "bool"
            }
          ],
          "internalType": "struct Staking.Position",
          "name": "",
          "type": "tuple"
        }
      ],
      "stateMutability": "view",
      "type": "function"
    },
    {
      "inputs": [
        {
          "internalType": "address",
          "name": "walletAddress",
          "type": "address"
        }
      ],
      "name": "getPositionIdsForAddress",
      "outputs": [
        {
          "internalType": "uint256[]",
          "name": "",
          "type": "uint256[]"
        }
      ],
      "stateMutability": "view",
      "type": "function"
    },
    {
      "inputs": [
        {
          "internalType": "uint256",
          "name": "",
          "type": "uint256"
        }
      ],
      "name": "lockPeriods",
      "outputs": [
        {
          "internalType": "uint256",
          "name": "",
          "type": "uint256"
        }
      ],
      "stateMutability": "view",
      "type": "function"
    },
    {
      "inputs": [
        {
          "internalType": "uint256",
          "name": "numDays",
          "type": "uint256"
        },
        {
          "internalType": "uint256",
          "name": "basisPoints",
          "type": "uint256"
        }
      ],
      "name": "modifyLockPeriods",
      "outputs": [],
      "stateMutability": "nonpayable",
      "type": "function"
    },
    {
      "inputs": [],
      "name": "owner",
      "outputs": [
        {
          "internalType": "address",
          "name": "",
          "type": "address"
        }
      ],
      "stateMutability": "view",
      "type": "function"
    },
    {
      "inputs": [
        {
          "internalType": "address",
          "name": "",
          "type": "address"
        },
        {
          "internalType": "uint256",
          "name": "",
          "type": "uint256"
        }
      ],
      "name": "positionIdsByAddress",
      "outputs": [
        {
          "internalType": "uint256",
          "name": "",
          "type": "uint256"
        }
      ],
      "stateMutability": "view",
      "type": "function"
    },
    {
      "inputs": [
        {
          "internalType": "uint256",
          "name": "",
          "type": "uint256"
        }
      ],
      "name": "positions",
      "outputs": [
        {
          "internalType": "uint256",
          "name": "positionId",
          "type": "uint256"
        },
        {
          "internalType": "address",
          "name": "walletAddress",
          "type": "address"
        },
        {
          "internalType": "uint256",
          "name": "createdDate",
          "type": "uint256"
        },
        {
          "internalType": "uint256",
          "name": "unlockDate",
          "type": "uint256"
        },
        {
          "internalType": "uint256",
          "name": "percentInterest",
          "type": "uint256"
        },
        {
          "internalType": "uint256",
          "name": "weiStaked",
          "type": "uint256"
        },
        {
          "internalType": "uint256",
          "name": "weiInterest",
          "type": "uint256"
        },
        {
          "internalType": "bool",
          "name": "open",
          "type": "bool"
        }
      ],
      "stateMutability": "view",
      "type": "function"
    },
    {
      "inputs": [
        {
          "internalType": "uint256",
          "name": "numDays",
          "type": "uint256"
        },
        {
          "internalType": "uint256",
          "name": "amount",
          "type": "uint256"
        }
      ],
      "name": "stakeEther",
      "outputs": [],
      "stateMutability": "nonpayable",
      "type": "function"
    },
    {
      "inputs": [],
      "name": "stakingToken",
      "outputs": [
        {
          "internalType": "contract IERC20",
          "name": "",
          "type": "address"
        }
      ],
      "stateMutability": "view",
      "type": "function"
    },
    {
      "inputs": [
        {
          "internalType": "uint256",
          "name": "",
          "type": "uint256"
        }
      ],
      "name": "tiers",
      "outputs": [
        {
          "internalType": "uint256",
          "name": "",
          "type": "uint256"
        }
      ],
      "stateMutability": "view",
      "type": "function"
    }
  ],
  "bytecode": "0x60806040523480156200001157600080fd5b50604051620018e1380380620018e18339818101604052810190620000379190620001ad565b336000806101000a81548173ffffffffffffffffffffffffffffffffffffffff021916908373ffffffffffffffffffffffffffffffffffffffff1602179055506000600a819055506102bc600d6000601e8152602001908152602001600020819055506103e8600d6000605a8152602001908152602001600020819055506104b0600d600060b4815260200190815260200160002081905550600e601e9080600181540180825580915050600190039060005260206000200160009091909190915055600e605a9080600181540180825580915050600190039060005260206000200160009091909190915055600e60b4908060018154018082558091505060019003906000526020600020016000909190919091505580600160006101000a81548173ffffffffffffffffffffffffffffffffffffffff021916908373ffffffffffffffffffffffffffffffffffffffff1602179055505062000227565b600081519050620001a7816200020d565b92915050565b600060208284031215620001c057600080fd5b6000620001d08482850162000196565b91505092915050565b6000620001e682620001ed565b9050919050565b600073ffffffffffffffffffffffffffffffffffffffff82169050919050565b6200021881620001d9565b81146200022457600080fd5b50565b6116aa80620002376000396000f3fe608060405234801561001057600080fd5b50600436106100f45760003560e01c806345eae3731161009757806399fbab881161006657806399fbab88146102ad578063a126d601146102e4578063b0f0475b14610300578063c7c9d0551461031c576100f4565b806345eae373146102115780634c8f2a781461024157806372f702f3146102715780638da5cb5b1461028f576100f4565b80631029663d116100d35780631029663d146101895780631131c8cd146101a557806340d98a44146101c357806341ee13be146101f3576100f4565b806216e9c4146100f9578063039af9eb146101295780630c196a7414610159575b600080fd5b610113600480360381019061010e9190610f1b565b610338565b6040516101209190611385565b60405180910390f35b610143600480360381019061013e9190610f1b565b610413565b60405161015091906113a1565b60405180910390f35b610173600480360381019061016e9190610f1b565b61042b565b60405161018091906113a1565b60405180910390f35b6101a3600480360381019061019e9190610f44565b610448565b005b6101ad61072e565b6040516101ba91906113a1565b60405180910390f35b6101dd60048036038101906101d89190610e8d565b610734565b6040516101ea91906112c8565b60405180910390f35b6101fb6107cb565b60405161020891906112c8565b60405180910390f35b61022b60048036038101906102269190610eb6565b610823565b60405161023891906113a1565b60405180910390f35b61025b60048036038101906102569190610f1b565b610854565b60405161026891906113a1565b60405180910390f35b610279610878565b60405161028691906112ea565b60405180910390f35b61029761089e565b6040516102a4919061124d565b60405180910390f35b6102c760048036038101906102c29190610f1b565b6108c2565b6040516102db9897969594939291906113bc565b60405180910390f35b6102fe60048036038101906102f99190610f1b565b610937565b005b61031a60048036038101906103159190610f44565b610c4e565b005b61033660048036038101906103319190610f44565b610d21565b005b610340610df1565b600b600083815260200190815260200160002060405180610100016040529081600082015481526020016001820160009054906101000a900473ffffffffffffffffffffffffffffffffffffffff1673ffffffffffffffffffffffffffffffffffffffff1673ffffffffffffffffffffffffffffffffffffffff16815260200160028201548152602001600382015481526020016004820154815260200160058201548152602001600682015481526020016007820160009054906101000a900460ff1615151515815250509050919050565b600d6020528060005260406000206000915090505481565b6000600d6000838152602001908152602001600020549050919050565b6000600d6000848152602001908152602001600020541161049e576040517f08c379a000000000000000000000000000000000000000000000000000000000815260040161049590611325565b60405180910390fd5b600160009054906101000a900473ffffffffffffffffffffffffffffffffffffffff1673ffffffffffffffffffffffffffffffffffffffff166323b872dd3330846040518463ffffffff1660e01b81526004016104fd93929190611268565b602060405180830381600087803b15801561051757600080fd5b505af115801561052b573d6000803e3d6000fd5b505050506040513d601f19601f8201168201806040525081019061054f9190610ef2565b50604051806101000160405280600a5481526020013373ffffffffffffffffffffffffffffffffffffffff1681526020014281526020016201518084610595919061150b565b426105a09190611484565b8152602001600d60008581526020019081526020016000205481526020018281526020016105e1600d60008681526020019081526020016000205484610dce565b815260200160011515815250600b6000600a5481526020019081526020016000206000820151816000015560208201518160010160006101000a81548173ffffffffffffffffffffffffffffffffffffffff021916908373ffffffffffffffffffffffffffffffffffffffff16021790555060408201518160020155606082015181600301556080820151816004015560a0820151816005015560c0820151816006015560e08201518160070160006101000a81548160ff021916908315150217905550905050600c60003373ffffffffffffffffffffffffffffffffffffffff1673ffffffffffffffffffffffffffffffffffffffff168152602001908152602001600020600a5490806001815401808255809150506001900390600052602060002001600090919091909150556001600a60008282546107239190611484565b925050819055505050565b600a5481565b6060600c60008373ffffffffffffffffffffffffffffffffffffffff1673ffffffffffffffffffffffffffffffffffffffff1681526020019081526020016000208054806020026020016040519081016040528092919081815260200182805480156107bf57602002820191906000526020600020905b8154815260200190600101908083116107ab575b50505050509050919050565b6060600e80548060200260200160405190810160405280929190818152602001828054801561081957602002820191906000526020600020905b815481526020019060010190808311610805575b5050505050905090565b600c602052816000526040600020818154811061083f57600080fd5b90600052602060002001600091509150505481565b600e818154811061086457600080fd5b906000526020600020016000915090505481565b600160009054906101000a900473ffffffffffffffffffffffffffffffffffffffff1681565b60008054906101000a900473ffffffffffffffffffffffffffffffffffffffff1681565b600b6020528060005260406000206000915090508060000154908060010160009054906101000a900473ffffffffffffffffffffffffffffffffffffffff16908060020154908060030154908060040154908060050154908060060154908060070160009054906101000a900460ff16905088565b3373ffffffffffffffffffffffffffffffffffffffff16600b600083815260200190815260200160002060010160009054906101000a900473ffffffffffffffffffffffffffffffffffffffff1673ffffffffffffffffffffffffffffffffffffffff16146109db576040517f08c379a00000000000000000000000000000000000000000000000000000000081526004016109d290611345565b60405180910390fd5b60011515600b600083815260200190815260200160002060070160009054906101000a900460ff16151514610a45576040517f08c379a0000000000000000000000000000000000000000000000000000000008152600401610a3c90611365565b60405180910390fd5b6000600b600083815260200190815260200160002060070160006101000a81548160ff021916908315150217905550600b600082815260200190815260200160002060030154421115610b84576000600b600083815260200190815260200160002060060154600b600084815260200190815260200160002060050154610acc9190611484565b9050600160009054906101000a900473ffffffffffffffffffffffffffffffffffffffff1673ffffffffffffffffffffffffffffffffffffffff1663a9059cbb33836040518363ffffffff1660e01b8152600401610b2b92919061129f565b602060405180830381600087803b158015610b4557600080fd5b505af1158015610b59573d6000803e3d6000fd5b505050506040513d601f19601f82011682018060405250810190610b7d9190610ef2565b5050610c4b565b600160009054906101000a900473ffffffffffffffffffffffffffffffffffffffff1673ffffffffffffffffffffffffffffffffffffffff1663a9059cbb33600b6000858152602001908152602001600020600501546040518363ffffffff1660e01b8152600401610bf792919061129f565b602060405180830381600087803b158015610c1157600080fd5b505af1158015610c25573d6000803e3d6000fd5b505050506040513d601f19601f82011682018060405250810190610c499190610ef2565b505b50565b3373ffffffffffffffffffffffffffffffffffffffff1660008054906101000a900473ffffffffffffffffffffffffffffffffffffffff1673ffffffffffffffffffffffffffffffffffffffff1614610cdc576040517f08c379a0000000000000000000000000000000000000000000000000000000008152600401610cd390611305565b60405180910390fd5b80600d600084815260200190815260200160002081905550600e8290806001815401808255809150506001900390600052602060002001600090919091909150555050565b3373ffffffffffffffffffffffffffffffffffffffff1660008054906101000a900473ffffffffffffffffffffffffffffffffffffffff1673ffffffffffffffffffffffffffffffffffffffff1614610daf576040517f08c379a0000000000000000000000000000000000000000000000000000000008152600401610da690611305565b60405180910390fd5b80600b6000848152602001908152602001600020600301819055505050565b60006127108284610ddf919061150b565b610de991906114da565b905092915050565b60405180610100016040528060008152602001600073ffffffffffffffffffffffffffffffffffffffff16815260200160008152602001600081526020016000815260200160008152602001600081526020016000151581525090565b600081359050610e5d8161162f565b92915050565b600081519050610e7281611646565b92915050565b600081359050610e878161165d565b92915050565b600060208284031215610e9f57600080fd5b6000610ead84828501610e4e565b91505092915050565b60008060408385031215610ec957600080fd5b6000610ed785828601610e4e565b9250506020610ee885828601610e78565b9150509250929050565b600060208284031215610f0457600080fd5b6000610f1284828501610e63565b91505092915050565b600060208284031215610f2d57600080fd5b6000610f3b84828501610e78565b91505092915050565b60008060408385031215610f5757600080fd5b6000610f6585828601610e78565b9250506020610f7685828601610e78565b9150509250929050565b6000610f8c838361122f565b60208301905092915050565b610fa181611565565b82525050565b610fb081611565565b82525050565b6000610fc18261144a565b610fcb8185611462565b9350610fd68361143a565b8060005b83811015611007578151610fee8882610f80565b9750610ff983611455565b925050600181019050610fda565b5085935050505092915050565b61101d81611577565b82525050565b61102c81611577565b82525050565b61103b816115ad565b82525050565b600061104e602583611473565b91507f4f6e6c79206f776e6572206d6179206d6f64696679207374616b696e6720706560008301527f72696f64730000000000000000000000000000000000000000000000000000006020830152604082019050919050565b60006110b4601183611473565b91507f4d617070696e67206e6f7420666f756e640000000000000000000000000000006000830152602082019050919050565b60006110f4602983611473565b91507f4f6e6c7920706f736974696f6e2063726561746f72206d6179206d6f6469667960008301527f20706f736974696f6e00000000000000000000000000000000000000000000006020830152604082019050919050565b600061115a601283611473565b91507f506f736974696f6e20697320636c6f73656400000000000000000000000000006000830152602082019050919050565b610100820160008201516111a4600085018261122f565b5060208201516111b76020850182610f98565b5060408201516111ca604085018261122f565b5060608201516111dd606085018261122f565b5060808201516111f0608085018261122f565b5060a082015161120360a085018261122f565b5060c082015161121660c085018261122f565b5060e082015161122960e0850182611014565b50505050565b611238816115a3565b82525050565b611247816115a3565b82525050565b60006020820190506112626000830184610fa7565b92915050565b600060608201905061127d6000830186610fa7565b61128a6020830185610fa7565b611297604083018461123e565b949350505050565b60006040820190506112b46000830185610fa7565b6112c1602083018461123e565b9392505050565b600060208201905081810360008301526112e28184610fb6565b905092915050565b60006020820190506112ff6000830184611032565b92915050565b6000602082019050818103600083015261131e81611041565b9050919050565b6000602082019050818103600083015261133e816110a7565b9050919050565b6000602082019050818103600083015261135e816110e7565b9050919050565b6000602082019050818103600083015261137e8161114d565b9050919050565b60006101008201905061139b600083018461118d565b92915050565b60006020820190506113b6600083018461123e565b92915050565b6000610100820190506113d2600083018b61123e565b6113df602083018a610fa7565b6113ec604083018961123e565b6113f9606083018861123e565b611406608083018761123e565b61141360a083018661123e565b61142060c083018561123e565b61142d60e0830184611023565b9998505050505050505050565b6000819050602082019050919050565b600081519050919050565b6000602082019050919050565b600082825260208201905092915050565b600082825260208201905092915050565b600061148f826115a3565b915061149a836115a3565b9250827fffffffffffffffffffffffffffffffffffffffffffffffffffffffffffffffff038211156114cf576114ce6115d1565b5b828201905092915050565b60006114e5826115a3565b91506114f0836115a3565b925082611500576114ff611600565b5b828204905092915050565b6000611516826115a3565b9150611521836115a3565b9250817fffffffffffffffffffffffffffffffffffffffffffffffffffffffffffffffff048311821515161561155a576115596115d1565b5b828202905092915050565b600061157082611583565b9050919050565b60008115159050919050565b600073ffffffffffffffffffffffffffffffffffffffff82169050919050565b6000819050919050565b60006115b8826115bf565b9050919050565b60006115ca82611583565b9050919050565b7f4e487b7100000000000000000000000000000000000000000000000000000000600052601160045260246000fd5b7f4e487b7100000000000000000000000000000000000000000000000000000000600052601260045260246000fd5b61163881611565565b811461164357600080fd5b50565b61164f81611577565b811461165a57600080fd5b50565b611666816115a3565b811461167157600080fd5b5056fea2646970667358221220b32c5cd9db5d027d16ff206d2da06e517333780b8e5979d54db8eff15255576f64736f6c63430008000033",
  "linkReferences": {},
  "deployedLinkReferences": {}
}