{
  "_format": "hh-sol-artifact-1",
  "contractName": "Staking",
  "sourceName": "contracts/Staking.sol",
  "abi": [
    {
      "inputs": [
        {
          "internalType": "address",
          "name": "token",
          "type": "address"
        }
      ],
      "stateMutability": "nonpayable",
      "type": "constructor"
    },
    {
      "inputs": [
        {
          "internalType": "uint256",
          "name": "totalStakedPercentage",
          "type": "uint256"
        }
      ],
      "name": "calculateAPR",
      "outputs": [
        {
          "internalType": "uint256",
          "name": "",
          "type": "uint256"
        }
      ],
      "stateMutability": "pure",
      "type": "function"
    },
    {
      "inputs": [
        {
          "internalType": "address",
          "name": "account",
          "type": "address"
        }
      ],
      "name": "checkBalance",
      "outputs": [
        {
          "internalType": "uint256",
          "name": "",
          "type": "uint256"
        }
      ],
      "stateMutability": "view",
      "type": "function"
    },
    {
      "inputs": [],
      "name": "getAPR",
      "outputs": [
        {
          "internalType": "uint256",
          "name": "",
          "type": "uint256"
        }
      ],
      "stateMutability": "view",
      "type": "function"
    },
    {
      "inputs": [],
      "name": "getPositions",
      "outputs": [
        {
          "components": [
            {
              "internalType": "address",
              "name": "walletAddress",
              "type": "address"
            },
            {
              "internalType": "uint256",
              "name": "createdDate",
              "type": "uint256"
            },
            {
              "internalType": "uint256",
              "name": "amountStaked",
              "type": "uint256"
            },
            {
              "internalType": "uint256",
              "name": "rewardStaked",
              "type": "uint256"
            }
          ],
          "internalType": "struct Staking.Position",
          "name": "",
          "type": "tuple"
        }
      ],
      "stateMutability": "view",
      "type": "function"
    },
    {
      "inputs": [],
      "name": "getRewards",
      "outputs": [
        {
          "internalType": "uint256",
          "name": "",
          "type": "uint256"
        }
      ],
      "stateMutability": "nonpayable",
      "type": "function"
    },
    {
      "inputs": [],
      "name": "getTotalStakedAmount",
      "outputs": [
        {
          "internalType": "uint256",
          "name": "",
          "type": "uint256"
        }
      ],
      "stateMutability": "view",
      "type": "function"
    },
    {
      "inputs": [],
      "name": "harvest",
      "outputs": [],
      "stateMutability": "nonpayable",
      "type": "function"
    },
    {
      "inputs": [],
      "name": "owner",
      "outputs": [
        {
          "internalType": "address",
          "name": "",
          "type": "address"
        }
      ],
      "stateMutability": "view",
      "type": "function"
    },
    {
      "inputs": [
        {
          "internalType": "address",
          "name": "",
          "type": "address"
        }
      ],
      "name": "positions",
      "outputs": [
        {
          "internalType": "address",
          "name": "walletAddress",
          "type": "address"
        },
        {
          "internalType": "uint256",
          "name": "createdDate",
          "type": "uint256"
        },
        {
          "internalType": "uint256",
          "name": "amountStaked",
          "type": "uint256"
        },
        {
          "internalType": "uint256",
          "name": "rewardStaked",
          "type": "uint256"
        }
      ],
      "stateMutability": "view",
      "type": "function"
    },
    {
      "inputs": [
        {
          "internalType": "uint256",
          "name": "apr",
          "type": "uint256"
        },
        {
          "internalType": "uint256",
          "name": "amountStaked",
          "type": "uint256"
        },
        {
          "internalType": "uint256",
          "name": "startDate",
          "type": "uint256"
        }
      ],
      "name": "reward",
      "outputs": [
        {
          "internalType": "uint256",
          "name": "",
          "type": "uint256"
        }
      ],
      "stateMutability": "view",
      "type": "function"
    },
    {
      "inputs": [
        {
          "internalType": "uint256",
          "name": "amount",
          "type": "uint256"
        }
      ],
      "name": "stake",
      "outputs": [],
      "stateMutability": "nonpayable",
      "type": "function"
    },
    {
      "inputs": [],
      "name": "stakedAmount",
      "outputs": [
        {
          "internalType": "uint256",
          "name": "amountStaked",
          "type": "uint256"
        }
      ],
      "stateMutability": "view",
      "type": "function"
    },
    {
      "inputs": [],
      "name": "stakingToken",
      "outputs": [
        {
          "internalType": "contract IERC20",
          "name": "",
          "type": "address"
        }
      ],
      "stateMutability": "view",
      "type": "function"
    },
    {
      "inputs": [],
      "name": "unstake",
      "outputs": [],
      "stateMutability": "nonpayable",
      "type": "function"
    }
  ],
  "bytecode": "0x60806040523480156200001157600080fd5b5060405162001dc938038062001dc98339818101604052810190620000379190620000d6565b336000806101000a81548173ffffffffffffffffffffffffffffffffffffffff021916908373ffffffffffffffffffffffffffffffffffffffff16021790555080600160006101000a81548173ffffffffffffffffffffffffffffffffffffffff021916908373ffffffffffffffffffffffffffffffffffffffff1602179055505062000150565b600081519050620000d08162000136565b92915050565b600060208284031215620000e957600080fd5b6000620000f984828501620000bf565b91505092915050565b60006200010f8262000116565b9050919050565b600073ffffffffffffffffffffffffffffffffffffffff82169050919050565b620001418162000102565b81146200014d57600080fd5b50565b611c6980620001606000396000f3fe608060405234801561001057600080fd5b50600436106100ea5760003560e01c80635f5152261161008c5780638da5cb5b116100665780638da5cb5b1461022c578063a694fc3a1461024a578063c89d5b8b14610266578063d1a02a8614610284576100ea565b80635f515226146101c057806372f702f3146101f0578063802758601461020e576100ea565b8063373d6132116100c8578063373d61321461014757806338adb6f0146101655780634641257d1461018357806355f575101461018d576100ea565b8063035694b6146100ef5780630572b0cc1461011f5780632def66201461013d575b600080fd5b6101096004803603810190610104919061166c565b6102b4565b60405161011691906119e3565b60405180910390f35b610127610402565b60405161013491906119e3565b60405180910390f35b6101456104f1565b005b61014f6108db565b60405161015c91906119e3565b60405180910390f35b61016d6108e7565b60405161017a91906119e3565b60405180910390f35b61018b6108f4565b005b6101a760048036038101906101a291906115c8565b610cb5565b6040516101b79493929190611908565b60405180910390f35b6101da60048036038101906101d591906115c8565b610d05565b6040516101e791906119e3565b60405180910390f35b6101f8610db9565b604051610205919061194d565b60405180910390f35b610216610ddf565b60405161022391906119c8565b60405180910390f35b610234610eaa565b604051610241919061188d565b60405180910390f35b610264600480360381019061025f919061161a565b610ece565b005b61026e611331565b60405161027b91906119e3565b60405180910390f35b61029e6004803603810190610299919061161a565b61141b565b6040516102ab91906119e3565b60405180910390f35b600080600260003373ffffffffffffffffffffffffffffffffffffffff1673ffffffffffffffffffffffffffffffffffffffff16815260200190815260200160002060020154146103b5576000824261030d9190611af0565b90506000610325603c8361150a90919063ffffffff16565b90506000610343662386f26fc100008861152090919063ffffffff16565b9050600061035d620805208361150a90919063ffffffff16565b9050600061038e670de0b6b3a7640000610380848b61152090919063ffffffff16565b61150a90919063ffffffff16565b905060006103a5858361152090919063ffffffff16565b90508096505050505050506103fb565b600260003373ffffffffffffffffffffffffffffffffffffffff1673ffffffffffffffffffffffffffffffffffffffff1681526020019081526020016000206003015490505b9392505050565b60008061040d611331565b905060006104a082600260003373ffffffffffffffffffffffffffffffffffffffff1673ffffffffffffffffffffffffffffffffffffffff16815260200190815260200160002060020154600260003373ffffffffffffffffffffffffffffffffffffffff1673ffffffffffffffffffffffffffffffffffffffff168152602001908152602001600020600101546102b4565b905080600260003373ffffffffffffffffffffffffffffffffffffffff1673ffffffffffffffffffffffffffffffffffffffff16815260200190815260200160002060030181905550809250505090565b3373ffffffffffffffffffffffffffffffffffffffff16600260003373ffffffffffffffffffffffffffffffffffffffff1673ffffffffffffffffffffffffffffffffffffffff16815260200190815260200160002060000160009054906101000a900473ffffffffffffffffffffffffffffffffffffffff1673ffffffffffffffffffffffffffffffffffffffff16146105c1576040517f08c379a00000000000000000000000000000000000000000000000000000000081526004016105b890611968565b60405180910390fd5b6000600260003373ffffffffffffffffffffffffffffffffffffffff1673ffffffffffffffffffffffffffffffffffffffff168152602001908152602001600020600201541415610647576040517f08c379a000000000000000000000000000000000000000000000000000000000815260040161063e906119a8565b60405180910390fd5b600160009054906101000a900473ffffffffffffffffffffffffffffffffffffffff1673ffffffffffffffffffffffffffffffffffffffff1663a9059cbb33600260003373ffffffffffffffffffffffffffffffffffffffff1673ffffffffffffffffffffffffffffffffffffffff168152602001908152602001600020600201546040518363ffffffff1660e01b81526004016106e69291906118df565b602060405180830381600087803b15801561070057600080fd5b505af1158015610714573d6000803e3d6000fd5b505050506040513d601f19601f8201168201806040525081019061073891906115f1565b506040518060200160405280600260003373ffffffffffffffffffffffffffffffffffffffff1673ffffffffffffffffffffffffffffffffffffffff168152602001908152602001600020600201546003600001546107979190611af0565b81525060036000820151816000015590505060006107b3611331565b9050600061084682600260003373ffffffffffffffffffffffffffffffffffffffff1673ffffffffffffffffffffffffffffffffffffffff16815260200190815260200160002060020154600260003373ffffffffffffffffffffffffffffffffffffffff1673ffffffffffffffffffffffffffffffffffffffff168152602001908152602001600020600101546102b4565b905080600260003373ffffffffffffffffffffffffffffffffffffffff1673ffffffffffffffffffffffffffffffffffffffff168152602001908152602001600020600301819055506000600260003373ffffffffffffffffffffffffffffffffffffffff1673ffffffffffffffffffffffffffffffffffffffff168152602001908152602001600020600201819055505050565b60038060000154905081565b6000600360000154905090565b3373ffffffffffffffffffffffffffffffffffffffff16600260003373ffffffffffffffffffffffffffffffffffffffff1673ffffffffffffffffffffffffffffffffffffffff16815260200190815260200160002060000160009054906101000a900473ffffffffffffffffffffffffffffffffffffffff1673ffffffffffffffffffffffffffffffffffffffff16146109c4576040517f08c379a00000000000000000000000000000000000000000000000000000000081526004016109bb90611968565b60405180910390fd5b6000600260003373ffffffffffffffffffffffffffffffffffffffff1673ffffffffffffffffffffffffffffffffffffffff168152602001908152602001600020600201541415610a4a576040517f08c379a0000000000000000000000000000000000000000000000000000000008152600401610a4190611988565b60405180910390fd5b6000610a54611331565b90506000610ae782600260003373ffffffffffffffffffffffffffffffffffffffff1673ffffffffffffffffffffffffffffffffffffffff16815260200190815260200160002060020154600260003373ffffffffffffffffffffffffffffffffffffffff1673ffffffffffffffffffffffffffffffffffffffff168152602001908152602001600020600101546102b4565b905080600260003373ffffffffffffffffffffffffffffffffffffffff1673ffffffffffffffffffffffffffffffffffffffff16815260200190815260200160002060030181905550600160009054906101000a900473ffffffffffffffffffffffffffffffffffffffff1673ffffffffffffffffffffffffffffffffffffffff1663a9059cbb33600260003373ffffffffffffffffffffffffffffffffffffffff1673ffffffffffffffffffffffffffffffffffffffff168152602001908152602001600020600301546040518363ffffffff1660e01b8152600401610bcf9291906118df565b602060405180830381600087803b158015610be957600080fd5b505af1158015610bfd573d6000803e3d6000fd5b505050506040513d601f19601f82011682018060405250810190610c2191906115f1565b5042600260003373ffffffffffffffffffffffffffffffffffffffff1673ffffffffffffffffffffffffffffffffffffffff168152602001908152602001600020600101819055506000600260003373ffffffffffffffffffffffffffffffffffffffff1673ffffffffffffffffffffffffffffffffffffffff168152602001908152602001600020600301819055505050565b60026020528060005260406000206000915090508060000160009054906101000a900473ffffffffffffffffffffffffffffffffffffffff16908060010154908060020154908060030154905084565b6000600160009054906101000a900473ffffffffffffffffffffffffffffffffffffffff1673ffffffffffffffffffffffffffffffffffffffff166370a08231836040518263ffffffff1660e01b8152600401610d62919061188d565b60206040518083038186803b158015610d7a57600080fd5b505afa158015610d8e573d6000803e3d6000fd5b505050506040513d601f19601f82011682018060405250810190610db29190611643565b9050919050565b600160009054906101000a900473ffffffffffffffffffffffffffffffffffffffff1681565b610de7611536565b600260003373ffffffffffffffffffffffffffffffffffffffff1673ffffffffffffffffffffffffffffffffffffffff1681526020019081526020016000206040518060800160405290816000820160009054906101000a900473ffffffffffffffffffffffffffffffffffffffff1673ffffffffffffffffffffffffffffffffffffffff1673ffffffffffffffffffffffffffffffffffffffff1681526020016001820154815260200160028201548152602001600382015481525050905090565b60008054906101000a900473ffffffffffffffffffffffffffffffffffffffff1681565b600160009054906101000a900473ffffffffffffffffffffffffffffffffffffffff1673ffffffffffffffffffffffffffffffffffffffff166323b872dd3330846040518463ffffffff1660e01b8152600401610f2d939291906118a8565b602060405180830381600087803b158015610f4757600080fd5b505af1158015610f5b573d6000803e3d6000fd5b505050506040513d601f19601f82011682018060405250810190610f7f91906115f1565b506000600260003373ffffffffffffffffffffffffffffffffffffffff1673ffffffffffffffffffffffffffffffffffffffff16815260200190815260200160002060010154146111885760405180608001604052803373ffffffffffffffffffffffffffffffffffffffff168152602001600260003373ffffffffffffffffffffffffffffffffffffffff1673ffffffffffffffffffffffffffffffffffffffff16815260200190815260200160002060010154815260200182600260003373ffffffffffffffffffffffffffffffffffffffff1673ffffffffffffffffffffffffffffffffffffffff168152602001908152602001600020600201600082825461108b9190611a0f565b9250508190558152602001600260003373ffffffffffffffffffffffffffffffffffffffff1673ffffffffffffffffffffffffffffffffffffffff16815260200190815260200160002060030154815250600260003373ffffffffffffffffffffffffffffffffffffffff1673ffffffffffffffffffffffffffffffffffffffff16815260200190815260200160002060008201518160000160006101000a81548173ffffffffffffffffffffffffffffffffffffffff021916908373ffffffffffffffffffffffffffffffffffffffff160217905550602082015181600101556040820151816002015560608201518160030155905050611300565b60405180608001604052803373ffffffffffffffffffffffffffffffffffffffff16815260200142815260200182600260003373ffffffffffffffffffffffffffffffffffffffff1673ffffffffffffffffffffffffffffffffffffffff16815260200190815260200160002060020160008282546112079190611a0f565b9250508190558152602001600260003373ffffffffffffffffffffffffffffffffffffffff1673ffffffffffffffffffffffffffffffffffffffff16815260200190815260200160002060030154815250600260003373ffffffffffffffffffffffffffffffffffffffff1673ffffffffffffffffffffffffffffffffffffffff16815260200190815260200160002060008201518160000160006101000a81548173ffffffffffffffffffffffffffffffffffffffff021916908373ffffffffffffffffffffffffffffffffffffffff1602179055506020820151816001015560408201518160020155606082015181600301559050505b60405180602001604052808260036000015461131c9190611a0f565b81525060036000820151816000015590505050565b60008060036000015490506000600160009054906101000a900473ffffffffffffffffffffffffffffffffffffffff1673ffffffffffffffffffffffffffffffffffffffff166318160ddd6040518163ffffffff1660e01b815260040160206040518083038186803b1580156113a657600080fd5b505afa1580156113ba573d6000803e3d6000fd5b505050506040513d601f19601f820116820180604052508101906113de9190611643565b90506000611408826113fa60648661152090919063ffffffff16565b61150a90919063ffffffff16565b90506114138161141b565b935050505090565b60008060009050601483116114585760148361095161143a9190611a96565b6114449190611a65565b6109606114519190611af0565b9050611501565b60288311611497576014808461146e9190611af0565b600861147a9190611a96565b6114849190611a65565b600f6114909190611af0565b9050611500565b60328310156114d857600a6028846114af9190611af0565b60076114bb9190611a96565b6114c59190611a65565b60076114d19190611af0565b90506114ff565b603280846114e69190611af0565b60076114f29190611a96565b6114fc9190611a65565b90505b5b5b80915050919050565b600081836115189190611a65565b905092915050565b6000818361152e9190611a96565b905092915050565b6040518060800160405280600073ffffffffffffffffffffffffffffffffffffffff1681526020016000815260200160008152602001600081525090565b60008135905061158381611bee565b92915050565b60008151905061159881611c05565b92915050565b6000813590506115ad81611c1c565b92915050565b6000815190506115c281611c1c565b92915050565b6000602082840312156115da57600080fd5b60006115e884828501611574565b91505092915050565b60006020828403121561160357600080fd5b600061161184828501611589565b91505092915050565b60006020828403121561162c57600080fd5b600061163a8482850161159e565b91505092915050565b60006020828403121561165557600080fd5b6000611663848285016115b3565b91505092915050565b60008060006060848603121561168157600080fd5b600061168f8682870161159e565b93505060206116a08682870161159e565b92505060406116b18682870161159e565b9150509250925092565b6116c481611b24565b82525050565b6116d381611b24565b82525050565b6116e281611b6c565b82525050565b60006116f56029836119fe565b91507f4f6e6c79206f776e6572206d6179206d6f6469667920616e207374616b696e6760008301527f20706f736974696f6e00000000000000000000000000000000000000000000006020830152604082019050919050565b600061175b6037836119fe565b91507f74686520757365722073686f756c64206861766520616e20616d6f756e74207260008301527f657761726420746f2068617665206120686172766573740000000000000000006020830152604082019050919050565b60006117c16030836119fe565b91507f74686520757365722073686f756c64206861766520616e20616d6f756e74207360008301527f74616b656420746f20756e7374616b65000000000000000000000000000000006020830152604082019050919050565b60808201600082015161183060008501826116bb565b506020820151611843602085018261186f565b506040820151611856604085018261186f565b506060820151611869606085018261186f565b50505050565b61187881611b62565b82525050565b61188781611b62565b82525050565b60006020820190506118a260008301846116ca565b92915050565b60006060820190506118bd60008301866116ca565b6118ca60208301856116ca565b6118d7604083018461187e565b949350505050565b60006040820190506118f460008301856116ca565b611901602083018461187e565b9392505050565b600060808201905061191d60008301876116ca565b61192a602083018661187e565b611937604083018561187e565b611944606083018461187e565b95945050505050565b600060208201905061196260008301846116d9565b92915050565b60006020820190508181036000830152611981816116e8565b9050919050565b600060208201905081810360008301526119a18161174e565b9050919050565b600060208201905081810360008301526119c1816117b4565b9050919050565b60006080820190506119dd600083018461181a565b92915050565b60006020820190506119f8600083018461187e565b92915050565b600082825260208201905092915050565b6000611a1a82611b62565b9150611a2583611b62565b9250827fffffffffffffffffffffffffffffffffffffffffffffffffffffffffffffffff03821115611a5a57611a59611b90565b5b828201905092915050565b6000611a7082611b62565b9150611a7b83611b62565b925082611a8b57611a8a611bbf565b5b828204905092915050565b6000611aa182611b62565b9150611aac83611b62565b9250817fffffffffffffffffffffffffffffffffffffffffffffffffffffffffffffffff0483118215151615611ae557611ae4611b90565b5b828202905092915050565b6000611afb82611b62565b9150611b0683611b62565b925082821015611b1957611b18611b90565b5b828203905092915050565b6000611b2f82611b42565b9050919050565b60008115159050919050565b600073ffffffffffffffffffffffffffffffffffffffff82169050919050565b6000819050919050565b6000611b7782611b7e565b9050919050565b6000611b8982611b42565b9050919050565b7f4e487b7100000000000000000000000000000000000000000000000000000000600052601160045260246000fd5b7f4e487b7100000000000000000000000000000000000000000000000000000000600052601260045260246000fd5b611bf781611b24565b8114611c0257600080fd5b50565b611c0e81611b36565b8114611c1957600080fd5b50565b611c2581611b62565b8114611c3057600080fd5b5056fea2646970667358221220eb6e8866c015ad3332816b48b48a81e6d03f49cb2bd61d715eb7676248cade1564736f6c63430008000033",
  "linkReferences": {},
  "deployedLinkReferences": {}
}